:020000040800F2
:10000000F84100209D0100081B130008431100085F
:1000100019130008A9020008D91600080000000002
:100020000000000000000000000000001F13000896
:10003000AB020008000000001D1300082113000897
:10004000B7010008B7010008B7010008B7010008B0
:10005000B7010008B7010008B7010008B7010008A0
:10006000B7010008B7010008B7010008B701000890
:10007000B7010008B7010008B7010008B701000880
:10008000B7010008B7010008B7010008B701000870
:10009000B7010008B7010008B7010008B701000860
:1000A000B7010008B7010008B7010008B701000850
:1000B000B7010008B7010008B7010008B701000840
:1000C000B7010008B7010008B7010008B701000830
:1000D000B7010008AD160008B7010008B701000815
:1000E000B7010008B7010008B7010008B701000810
:1000F000B7010008B7010008B7010008B701000800
:10010000B7010008B7010008B7010008B7010008EF
:10011000B7010008B7010008B7010008FD13000887
:10012000B7010008B7010008B7010008B7010008CF
:10013000B7010008B7010008B7010008B7010008BF
:10014000B7010008B7010008B7010008B7010008AF
:10015000B7010008B7010008B7010008B70100089F
:10016000B7010008B7010008B7010008B70100088F
:10017000B7010008B7010008B7010008000000003F
:10018000B7010008B7010008DFF80CD000F07AF8DA
:100190000048004719170008F8410020064880472A
:1001A00006480047FEE7FEE7FEE7FEE7FEE7FEE75C
:1001B000FEE7FEE7FEE7FEE7A91300088901000855
:1001C0002DE9F05F0546002092469B46884606468C
:1001D000814640241BE0284641464746224600F01F
:1001E00041F853465A46C01A914110D31146184659
:1001F000224600F028F82D1A67EB01084F462246E8
:100200000120002100F01FF817EB00094E41201ECD
:10021000A4F10104DFDC484631462A464346BDE8E6
:10022000F09FD2B201E000F8012B491EFBD27047CB
:100230000022F6E710B513460A4604461946FFF7B2
:10024000F0FF204610BD202A04DB203A00FA02F11C
:10025000002070479140C2F1200320FA03F31943B4
:1002600090407047202A04DB203A21FA02F0002156
:10027000704721FA02F3D040C2F1200291400843B6
:1002800019467047064C074D06E0E06840F0010350
:1002900094E8070098471034AC42F6D3FFF778FF94
:1002A0004417000864170008FEE77047704790F88D
:1002B0003510022903D080214165012070470521B6
:1002C00080F835100068016821F00101016000200C
:1002D000704700002DE9F84FDFF87CB100224FF0A5
:1002E00001084FF0030A4FF00F090BF1040E00BF95
:1002F0000B6808FA02F42340A3426ED14D68022D28
:1003000001D0122D0ED1D50800EB850CDCF8205061
:100310005607F70E09FA07F6B5430E69BE402E439D
:10032000CCF82060066855000F790AFA05FC07F042
:10033000030726EA0C06AF40374307604E68012EDC
:1003400005D0022E03D0112E01D0122E0ED18668B8
:10035000CF6826EA0C06AF40374387604668A6435D
:100360000C79C4F30014944034434460C6688C682C
:1003700026EA0C06AC403443C4604C68E40065D502
:10038000364C256845F480452560246822F0030535
:1003900004F480440094324C2E19D6F8084895078E
:1003A0002F0F09FA07F5AC432E4DA84201D10025C5
:1003B00024E02D4DA84201D101251FE02B4DA8427C
:1003C00001D102251AE02A4DA84201D1032515E0EA
:1003D000284DA84202D1042510E037E0264DA8425E
:1003E00001D105250AE0254DA84201D1062505E0E9
:1003F000234DA84201D1072500E00825BD40254333
:10040000C6F80858DBF800405D464E689C43F6038A
:1004100000D51C432C60DEF8004075464E689C43B6
:10042000B60300D51C432C600B4D08352C684E6874
:100430009C43F60200D51C432C60074D0C352C68FC
:100440004E689C43B60200D51C432C60521C102AF7
:10045000FFF44EAFBDE8F88F003C01404438024045
:100460000030014000000240000402400008024049
:10047000000C02400010024000140240001802402C
:10048000001C02400AB1816170470904FBE70000CB
:100490000148806870470000000000200248816821
:1004A0000278114481607047000000200B4810B5AD
:1004B000016841F400710160016841F480610160EC
:1004C000016841F480710160032000F06FF80020A2
:1004D00000F006F800F024F8002010BD003C0240B7
:1004E00070B50D4D04464FF47A712878B1FBF0F0E9
:1004F0000A490968B1FBF0F000F038FB48B9102C4C
:1005000007D200222146501E00F030F800206C6017
:1005100070BD012070BD0000000000200C00002014
:100520000A4808B5016841F480410160006800F4A0
:10053000804000900548001F016841F08051016033
:10054000006800F08050009008BD00004438024070
:10055000002809DB00F01F020121914040098000C2
:1005600000F1E020C0F8001170470000F0B40E4B1D
:100570001B680C46C3F30223C3F10705042D00D901
:100580000425191D072901D2002300E0DB1E0126E6
:1005900006FA05F1491E214099409E40761E1640FC
:1005A0003143F0BC01F099B80CED00E0064900F0D1
:1005B000070208684FF6FF03184040EA0220034A8A
:1005C00010430860704700000CED00E00000FA05E1
:1005D0002DE9F0470E46050065D0DFF81481D8F804
:1005E0000000F7B200F00F00B04207D288F80070A8
:1005F000D8F8000000F00F00B04254D128683D4CFC
:10060000810712D5400703D5206840F4E0502060F0
:100610002878000703D5206840F4604020602068F7
:10062000A96820F0F000084320602878C0072DD08A
:10063000304968680839012812D0022813D00328ED
:1006400011D00968890700292DDA216821F00301FA
:1006500001432160FFF71CFF814641F2883A0EE01A
:1006600009688903EFE709688901ECE7FFF710FFE4
:10067000A0EB0901514502D90320BDE8F0872068AD
:10068000696800F00C00B0EB810FEFD1D8F80010D2
:10069000404601F00F01B14207D90770006800F031
:1006A0000F00B04201D00120E7E72878400705D5C8
:1006B0002068E96820F4E0500843206028780007AB
:1006C00006D52068296920F4604040EAC100206016
:1006D00000F016F82168084AC1F30311515CC840C4
:1006E000064908600020FFF7FBFE0020C5E7000078
:1006F000003C024008380240321700080C0000207D
:10070000154810B5006810F00C02144813D01449B5
:10071000042A0FD0082A0ED10F4C241F2268236808
:1007200002F03F025B0207D52068C0F38810A0FBEF
:10073000010106E0084610BD2168C1F38811A1FB44
:1007400000010023FFF73CFD2168C1F30141491C72
:100750004900B0FBF1F010BD083802400024F4005D
:1007600040787D012DE9F84F050076D02878DFF834
:10077000F8B2BE4CC00749D0DBF800105846C1F3B0
:100780008101012908D00068C0F3810002280AD144
:10079000201D0068400206D52068800336D56868B1
:1007A0000028E2D032E06868B0F5803F10D0B0F5A4
:1007B000A02F206810D020F480302060206820F422
:1007C000802020606868A0B1FFF762FE06460CE05A
:1007D000206840F48030F4E740F480202060F7E7A0
:1007E000FFF756FE801B642873D820688003F7D576
:1007F0000CE0FFF74DFE064605E000BFFFF748FEA0
:10080000801B6428F0D820688003F7D42878DFF8AC
:10081000608280074FF000093ED5DBF80010584693
:1008200011F00C0F09D00068C0F3810002280BD131
:100830008D48001F0068400206D42068800715D547
:10084000E868012809D111E0E868B8B10120C8F8CA
:100850000000FFF71DFE064605E002E1FFF718FE67
:10086000801B0228C0D820688007F7D52068296936
:1008700020F0F80040EAC10020600DE0C8F80090C8
:10088000FFF706FE064604E0FFF702FE801B022883
:100890001FD820688007F7D42878000722D5724E29
:1008A000744869696C3671B101210160FFF7F0FD90
:1008B000074604E0FFF7ECFDC01B022809D83068AA
:1008C0008007F7D50EE0C0F80090FFF7E1FD07467E
:1008D00005E083E0FFF7DCFDC01B02287ED830680E
:1008E0008007F7D42878400768D5DFF87CA1002777
:1008F0000AF1380ADAF80000C0000BD4DAF8001068
:1009000041F08051CAF80010DAF80000012700F029
:1009100080500090584E3068C00510D4306840F4C4
:1009200080703060FFF7B4FD009005E0FFF7B0FD88
:100930000099401A022851D83068C005F6D54A4EB1
:10094000A868683601280FD00528306810D020F03C
:1009500001003060306820F004003060A868B8B151
:10096000FFF796FD00900FE0306840F00100F4E7DB
:1009700040F004003060F7E7FFF78AFD0099411A64
:1009800041F28830814264D830688007F4D50EE0A7
:10099000FFF77EFD009007E0FFF77AFD0099411A0E
:1009A00041F28830814254D830688007F4D42FB1A6
:1009B000DAF8001021F08051CAF80010A869C0B31D
:1009C000DBF80010C1F3810102294AD00228484611
:1009D00007D0C8F86000FFF75BFD00E039E005468E
:1009E0003AE04746C8F86000FFF752FD064604E0CB
:1009F000FFF74EFD801B02282BD820688001F7D41A
:100A0000D5E907010843A96A1C4A490802EB0141DC
:100A10006A6A41EA8211084395F82C1040EA0161A4
:100A20001148001F016001203866FFF731FD0546BF
:100A300005E014E0FFF72CFD401B022809D82068D0
:100A40008001F7D50BE000BFFFF722FD401B022815
:100A500002D90320BDE8F88F20688001F4D400207B
:100A6000F8E70120F6E700000838024000380240AD
:100A700000004742800E4742007000400000FFFF28
:100A800070B5040005D00025A56294F8510010B19E
:100A900006E0012070BD84F85050204600F030F888
:100AA000022084F851002068016821F040010160B3
:100AB000D4E901010843D4E90312114308436169F1
:100AC0000843218B01F400710843E1690843216A5E
:100AD0000843A16A084321680860A069042101EA6B
:100AE0001040616A0843216848602068C16921F4A8
:100AF0000061C1616565012084F85100002070BD6E
:100B000010B586B0044614216846FFF791FB1449DE
:100B10002068884221D113480021026842F4004233
:100B20000260006800F4004005900E48103802682A
:100B300042F004020260006800F0040005904FF4E7
:100B4000A05000900220CDE901010320039006206F
:100B5000049069460448FFF7BDFB06B010BD0000D5
:100B6000003C0040403802400008024010B5401EE2
:100B7000B0F1807F01D3012010BD4FF0E02460610F
:100B80000F21601700F0A9FD0020A061072020615F
:100B9000002010BD7047704770B590F83C20012AC6
:100BA00019D0012400F83C4F0222427050F83C3C1E
:100BB0005A689D6822F070060A684968324325F039
:100BC000800529435A6050F83C2C91604470002104
:100BD0000170084670BD022070BD10B5040003D03E
:100BE00094F83D0010B107E0012010BD002084F80A
:100BF0003C00204600F00CF8022084F83D00211D46
:100C0000206800F001FC012084F83D00002010BDA8
:100C100008B500680B49884212D10B48016841F0C1
:100C2000200101600068002200F0200000901146C1
:100C30003720FFF79BFCBDE808403720FFF788BC52
:100C400008BD00000014004040380240704700001A
:100C50002DE9F041044690F83C000D4601283DD0B6
:100C6000012684F83C60022084F83D00AAB3042ADF
:100C700046D02068082A55D0D5E90027E968036ADC
:100C800023F480530362D0F81CC0036A2CF4407C28
:100C90004CEA07274FF6FF7C27F470470CEA013136
:100CA00039434FF4204723F4204307EA02321A4322
:100CB000C16102622068C16921F44061C16120689C
:100CC000C169AA6841EA0221C0F81C1084F83D609D
:100CD000002084F83C00BDE8F08101E00220FAE742
:100CE000D5E90012EB68206800F0F2FB206881690A
:100CF00021F00C01816120688169AA6811430FE02D
:100D0000D5E90012EB68206800F022FC20688169B8
:100D100021F44061816120688169AA6841EA022169
:100D20008161D3E7D5E9002C2F7B016A21F4807122
:100D30000162C169036A21F0030141EA0C0121F05B
:100D4000F00C39074FF420674CEA116123F420635B
:100D500007EA02221A43C16102622068C16921F0D8
:100D60000C01C1612068C169AA681143ACE710B5E4
:100D7000040003D094F83D0010B107E0012010BD3D
:100D8000002084F83C00204600F00CF8022084F893
:100D90003D00211D206800F037FB012084F83D0054
:100DA000002010BD10B586B0044614216846FFF738
:100DB0003FFA2068B0F1804F1FD11148002102682E
:100DC00042F001020260006800F0010005900C484A
:100DD0001038026842F002020260006800F002006F
:100DE0000590082000900220CDE901010120CDE905
:100DF000031069460348FFF76DFA06B010BD000006
:100E0000403802400004024070B5044600680169A1
:100E10004FF00005C943890715D4C168C943890744
:100E200011D4E91E016101202077206880698007C4
:100E3000204602D0FFF70AFF04E000F098F82046B1
:100E400000F096F8257720680169C943490717D44F
:100E5000C168C943490713D46FF00401016102203E
:100E600020772068806910F4407F204602D0FFF789
:100E7000EDFE04E000F07BF8204600F079F82577DD
:100E800020680169C943090716D4C168C943090725
:100E900012D46FF008010161042020772068C06936
:100EA0008007204602D0FFF7D1FE04E000F05FF893
:100EB000204600F05DF8257720680169C943C9061E
:100EC00017D4C168C943C90613D46FF0100101617A
:100ED000082020772068C06910F4407F204602D0A7
:100EE000FFF7B4FE04E000F042F8204600F040F8BE
:100EF000257720680169C943C90708D1C168C9437A
:100F0000C90704D1891E0161204600F032F820682B
:100F10000169C943090609D4C168C943090605D452
:100F20006FF0800101612046FFF734FE20680169FF
:100F3000C943490609D4C168C943490605D46FF0BD
:100F400040010161204600F015F820680169C9439D
:100F500089060BD4C168C943890607D46FF0200104
:100F600001612046BDE87040FFF715BE70BD7047B7
:100F7000704770477047704710F8391F4078084332
:100F80007047000070B5026804461068D168536964
:100F900010F00F0F50D003F0010501F490763543A7
:100FA0005DD0C20705D0CA0503D5E26B42F001024D
:100FB000E263420705D5DA0703D0E26B42F0020292
:100FC000E263820705D5DA0703D0E26B42F0040240
:100FD000E263020705D5DA0703D0E26B42F00802AC
:100FE000E263E26B002A33D0800604D5880602D57E
:100FF000204600F0DEFA20684069E16BC0F3801003
:10100000090700D428B3204600F0C5FA20684169DA
:1010100049061AD5416921F040014161606BA0B1D8
:101020001B490165606BFFF742F9002810D0606B27
:10103000016DBDE870400847830610D58B060ED5BC
:101040002046BDE8704000F0B4BA2046FFF793FF99
:1010500070BD2046FFF78FFF0020E06370BD0306E0
:1010600006D50B0604D52046BDE8704000F0ECBA6A
:101070004006F3D54806F1D5D168204621F040015D
:10108000D160202184F8391000F05AF870BD0000BA
:101090008715000890F83A30202B22D1F9B1F2B12F
:1010A00090F83830012B1CD081628285C2850021E6
:1010B000C163222280F83A2080F838100168CA689B
:1010C00042F48072CA6001684A6942F001024A61D2
:1010D0000068C16841F02001C16000207047012014
:1010E000704702207047000030B5006811498842FF
:1010F0000CD1114841880A0408D402464C041278E5
:101100004FF0000306D50A2A01D0438030BD41F4D8
:1011100000410DE00D2A09D0C1F30D04074D491C13
:1011200089B22A554180C729EFD830BD41F48041AA
:10113000418030BD0010014010000020EC00002074
:101140007047FEE7F0B587B014216846FFF770F8E6
:1011500031480024016841F001010160016801F09B
:1011600001010591016841F004010160016801F08D
:1011700004010591016841F008010160016801F076
:1011800008010591016841F002010160016801F068
:1011900002010591016841F01001016000681F4ED5
:1011A00000F010000590002202213046FFF76AF996
:1011B0001B4F00226A213846FFF764F90220009095
:1011C0000125CDE90154694630460394FFF782F8C2
:1011D0006A200090CDE90154694638460394FFF730
:1011E00079F88020CDE90004694638460294FFF77B
:1011F00071F8102000900B48CDE9010469460A48B7
:10120000FFF768F8CDE90054694608480294FFF7F3
:1012100061F807B0F0BD0000303802400000024025
:10122000000C0240000011100004024000100240B7
:101230000F4810B50D4901604FF4827141600021E3
:101240008160C1604FF400720161C0E90512C161A3
:101250000162416281620A21C162FFF711FC00282C
:1012600003D0BDE81040FFF721B810BD003C00409E
:101270001400002010B586B000241648059404948C
:101280000094019402944FF080410394C0E900144B
:101290008460C46004618461FFF769FD08B1FFF7F1
:1012A00005F8049404A90B480594FFF775FC08B1F0
:1012B000FEF7FCFF0120CDE90040029404226946BC
:1012C00004480394FFF7C4FC002801D0FEF7EEFFAA
:1012D00006B010BD6C0000201CB500240D48009421
:1012E0000B490194C0E900148460C4608461FFF775
:1012F00074FC08B1FEF7DAFF0094694605480194D2
:10130000FFF74AFC002801D0FEF7D0FF1CBD00000B
:1013100000140040AC000020FEE7704770477047A3
:10132000FFF7BCB830B593B030216846FEF780FFB8
:1013300014210CA8FEF77CFF19480025016841F034
:1013400080510160006800F08050119015480168DC
:1013500041F4804101600068022400F48040119053
:101360000120039010200490009406940820CDE9F9
:101370000750A820CDE9090404200B906846FFF728
:10138000F1F90CA90F2081E831004FF4A0500F9023
:10139000E002109005210CA8FFF71AF913B030BD38
:1013A00040380240007000401048016841F470016C
:1013B00001600F48016841F0010101600C4A002101
:1013C0000832116002680B4B1A400260031D0A4A82
:1013D0001A60026822F48022026005480C30016025
:1013E00002495806803908607047000088ED00E027
:1013F00000380240FFFFF6FE103000240148FFF7DE
:1014000003BD0000AC000020F0B50268254C264D5D
:10141000264E274F274B4FF0804CA04209D0604505
:1014200007D0A84205D0B04203D0B84201D09842BC
:1014300004D122F0700E4A6842EA0E02A0421BD08C
:10144000604519D0A84217D0B04215D0B84213D089
:10145000984211D0184DA8420ED0184DA8420BD07A
:10146000174DA84208D0174DA84205D0164DA842E6
:1014700002D0164DA84203D122F44075CA682A430F
:101480004D6922F080022A4302608A68C2620A68BB
:101490008262A04201D0984201D109690163012111
:1014A0004161F0BD00000140000400400008004020
:1014B000000C004000040140004001400044014095
:1014C0000048014000180040001C0040002000407F
:1014D00070B5046A24F0010404628469056A154E3B
:1014E000B04214D0B0F1804F11D0134EB0420ED0A4
:1014F000124EB0420BD0124EB04208D0114EB04244
:1015000005D0114EB04202D0104EB04203D124F0AB
:101510000304144301E044F001041A0724F0F0042A
:1015200044EA126225F00A0301F00A0119438261BC
:10153000016270BD0000014000040040000800404E
:10154000000C004000040140004001400018004031
:1015500030B5046A24F0100404628469056A24F436
:10156000407444EA022222F470444FF6FF7202EA09
:1015700003322243A02425F0A00304EA01111943F9
:101580008261016230BD10B5806B0021C185C184CC
:10159000FFF7F1FC10BD0168CA6822F49072CA60BE
:1015A00001684A6922F001024A61202180F83A105C
:1015B000704710B590F83A10222901D0022010BDD2
:1015C0008168B1F5805F11D00169002901681FD0E1
:1015D000496801F07F03816A4A1C82620B70C18DE9
:1015E000491E0904090CC18518D02BE00269816AE3
:1015F000002A0268526805D0D2B20A80816A491C6A
:101600008162ECE7C2F308020A80816A891CF7E76D
:101610004A68816A4B1C83620A70E0E70168CA6805
:1016200022F02002CA600168CA6822F48072CA608F
:1016300001684A6922F001024A61202180F83A10CB
:10164000FFF752FD002010BD90F83910212901D07C
:10165000022070478168B1F5805F016A0BD04A1C97
:101660000262026809785160C18C491E0904090CA4
:10167000C1840ED017E009880268C1F308015160E7
:1016800001690029016A02D0491C0162ECE7891C4A
:10169000FBE70168CA6822F08002CA600068C1687E
:1016A00041F04001C16000207047000010B50848BB
:1016B000FFF768FC0648FFF75FFC2028FAD10122FB
:1016C00004490348FFF7E6FC0028F8D110BD0000EC
:1016D000B401002010000020FEE70907090E0028D1
:1016E00004DB00F1E02080F80014704700F00F00E8
:1016F00000F1E02080F8141D704702E008C8121FB6
:1017000008C1002AFAD170477047002001E001C1EA
:10171000121F002AFBD17047FEF7C8FEFFF702FE3A
:10172000FFF710FDFFF784FDFFF7A4FDFFF7D4FDE1
:10173000FEE70000000000000000010203040607AD
:1017400008090000641700080000002014000000D1
:10175000FA1600087817000814000020E441000081
:101760000A1700080100000010000000000000003F
:081770000024F4000000000059
:040000050800018965
:00000001FF
