:020000040800F2
:10000000706100209D010008571A00089B17000826
:10001000551A000875070008772000080000000046
:10002000000000000000000000000000C11D0008EA
:100030007707000800000000D11C0008C31D00085D
:10004000B7010008B7010008B7010008B7010008B0
:10005000B7010008B7010008B7010008B7010008A0
:10006000B7010008B701000879070008B7010008C8
:10007000B7010008B7010008B7010008B701000880
:10008000B7010008B7010008B7010008B701000870
:10009000B7010008B7010008B7010008B701000860
:1000A000B7010008B7010008B7010008B701000850
:1000B000A11E0008B7010008B7010008B701000839
:1000C000B7010008B7010008B7010008B701000830
:1000D000B7010008B7010008B7010008B701000820
:1000E000B7010008B7010008B7010008B701000810
:1000F000B7010008C91E0008B7010008B7010008D1
:10010000B7010008B7010008B7010008B7010008EF
:10011000B7010008B7010008B7010008AD1E0008CC
:10012000B7010008B7010008B7010008B7010008CF
:10013000B7010008B7010008B7010008B7010008BF
:10014000B7010008B7010008B7010008B7010008AF
:10015000B7010008B7010008B7010008B70100089F
:10016000B7010008B7010008B7010008B70100088F
:10017000B7010008B7010008B7010008000000003F
:10018000B7010008B7010008DFF80CD000F0E0FA72
:10019000004800470D2C0008706100200648804789
:1001A00006480047FEE7FEE7FEE7FEE7FEE7FEE75C
:1001B000FEE7FEE7FEE7FEE74D1E000889010008A6
:1001C0002DE9F05F0546002092469B46884606468C
:1001D000814640241BE0284641464746224600F01F
:1001E00027F953465A46C01A914110D31146184672
:1001F000224600F00EF92D1A67EB01084F46224601
:100200000120002100F005F917EB00094E41201EE6
:10021000A4F10104DFDC484631462A464346BDE8E6
:10022000F09FD2B201E000F8012B491EFBD27047CB
:100230000022F6E710B513460A4604461946FFF7B2
:10024000F0FF204610BD421E12F8013F002BFBD1EB
:1002500011F8013B02F8013B002BF9D17047CAB2FB
:10026000401E10F8011F8A4202D00029F9D1002057
:1002700070472DE9FE4F804681EA0300C00F0C460F
:10028000009021F0004123F00045B8EB0200A941A5
:1002900005D24046214690461C460B46024623F0B6
:1002A0000040104347D0270DC7F30A00C3F30A519B
:1002B0000290401A019040286BDAC3F3130040F417
:1002C000801B0098924620B10023D2EB030A63EB17
:1002D0000B0B01985946C0F14002504600F099F8C6
:1002E00006460D4650465946019A00F0B1F810EB0B
:1002F00008006141002487EA115284EAE7731A4337
:1003000040D0009A62B3019A012A4FEA075215DCE5
:10031000001B61EB02014FF0004202EA0752CDE9F7
:100320000042001C41F5801132462B4600F0B1F826
:1003300003B0BDE8F08F40462146F9E7001B61EBB2
:100340000201001C41F5801300185B412018A2F542
:10035000001747EB030140EAD570B6196D4111E073
:100360006D084FEA360645EAC0754FEA0752001B92
:1003700061EB0201001C41F5801149084FEA300091
:100380000019514132462B4603B0BDE8F04F00F052
:1003900071B80098012240000023D0EB020263EB09
:1003A000E073009821464FEAE074B8EB000061EB7F
:1003B0000401E9E783F000435BE781F0004158E77F
:1003C00000F0004230F000400AD0C10D01F560712C
:1003D000C0F3160042EA0151C208400711437047BA
:1003E00000200146704730B50B4601460020202210
:1003F000012409E021FA02F59D4205D303FA02F532
:10040000491B04FA02F52844151EA2F10102F1DC91
:1004100030BD202A04DB203A00FA02F100207047A8
:100420009140C2F1200320FA03F319439040704732
:10043000202A04DB203A21FA02F00021704721FA39
:1004400002F3D040C2F120029140084319467047A0
:10045000202A06DBCB17203A41FA02F043EAE07388
:1004600006E041FA02F3D040C2F120029140084375
:100470001946704710B5141E73F1000408DA401CC9
:1004800041F1000192185B411A4301D120F00100B3
:1004900010BD2DE9F04D92469B4611B1B1FA81F2A3
:1004A00002E0B0FA80F220329046FFF7B2FF044635
:1004B0000F4640EA0A0041EA0B0153465A460843F8
:1004C00013D0114653EA010019D0C8F1400250463A
:1004D000FFF7AEFF05460E46504659464246FFF727
:1004E00098FF084305D0012004E020463946BDE8C6
:1004F000F08D0020054346EAE0762C4337430A9806
:100500006305E40AA0EB08000022FD0A44EA475410
:100510000A3002D500200146E9E7010510196941BA
:10052000DDE9084500196941BDE8F04DA2E72DE974
:10053000FE4F81EA030404F0004421F000410094DE
:100540004FF0000B23F0004350EA01045ED052EA62
:1005500003045BD0C3F30A54C1F30A552C44A4F23C
:10056000F3340194A0FB0254C1F3130141F4801150
:10057000C3F3130343F4801301FB024400FB034E57
:10058000840A970A44EA815447EA8357A4FB076820
:1005900002958D0A05FB07854FEA932C04FB0C544A
:1005A0002705029D4FEA065847EA1637B5EB0805BE
:1005B0006EEB070C870E920E47EA811742EA831210
:1005C000A7FB0201B6EB0B0164EB00042B0D43EA21
:1005D0000C335E1844EB1C50DA465146E7FB02012F
:1005E000C5F313044FEA0B3343EA14534FEA0432C2
:1005F000019C43EA0603A4F10C040294009CCDE99B
:1006000000B4FFF746FF03B0BDE8F08F00200146BD
:10061000F9E72DE9F04D81EA030404F0004B21F0E5
:10062000004514464FF0000A23F0004150EA05024D
:1006300020D054EA01021DD0C5F30A570246C5F383
:100640001303C1F31300C1F30A5640F4801543F4B9
:100650008013A7EB0608101BD64608F2FD3873EB93
:10066000050002D308F1010801E092185B41B8F1DE
:10067000000F03DA00200146BDE8F08D00204FF4A2
:100680008011064684460EE0171B73EB050705D361
:10069000121B63EB050306434CEA010C49084FEAC1
:1006A000300092185B4150EA0107EDD152EA030095
:1006B00012D082EA040083EA0501084305D0101B2A
:1006C000AB4106D20122002306E000224FF0004396
:1006D00002E06FF0010253101AEB06004CEB0851D8
:1006E00010EB0A0041EB0B01BDE8F04DFFF7C2BE75
:1006F000C1F30A52C1F3130140F2FF3341F48011F8
:100700009A4202DA00200146704740F233439A428F
:10071000A2F2334202DC5242FFF78ABEFFF779BEF3
:1007200030B5041E71F1000404DB4FF00044404278
:1007300064EB0101141E73F1000405DB1C464FF04D
:100740000043524263EB0403994208BF904230BD1C
:10075000064C074D06E0E06840F0010394E807000E
:1007600098471034AC42F6D3FFF712FD1435000859
:1007700034350008FEE77047102000F015B87047C8
:1007800070B5044600F006F90546601C02D0044826
:100790000078044400F0FEF8401BA042FAD370BD7C
:1007A0003800002070470000044910B50A68024272
:1007B00002D00860FFF7F6FF10BD0000143C0140B6
:1007C0002DE9F84FDFF87CB100224FF001084FF01F
:1007D000030A4FF00F090BF1040E00BF0B6808FA73
:1007E00002F42340A3426ED14D68022D01D0122D98
:1007F0000ED1D50800EB850CDCF820505607F70E1B
:1008000009FA07F6B5430E69BE402E43CCF82060C6
:10081000066855000F790AFA05FC07F0030726EA77
:100820000C06AF40374307604E68012E05D0022EFC
:1008300003D0112E01D0122E0ED18668CF6826EA81
:100840000C06AF40374387604668A6430C79C4F373
:100850000014944034434460C6688C6826EA0C0651
:10086000AC403443C4604C68E40065D5364C256820
:1008700045F480452560246822F0030504F4804493
:100880000094324C2E19D6F8084895072F0F09FA14
:1008900007F5AC432E4DA84201D1002524E02D4D93
:1008A000A84201D101251FE02B4DA84201D102250C
:1008B0001AE02A4DA84201D1032515E0284DA8428F
:1008C00002D1042510E037E0264DA84201D10525CC
:1008D0000AE0254DA84201D1062505E0234DA84296
:1008E00001D1072500E00825BD402543C6F808587A
:1008F000DBF800405D464E689C43F60300D51C4380
:100900002C60DEF8004075464E689C43B60300D567
:100910001C432C600B4D08352C684E689C43F60236
:1009200000D51C432C60074D0C352C684E689C4349
:10093000B60200D51C432C60521C102AFFF44EAFA7
:10094000BDE8F88F003C01404438024000300140CF
:10095000000002400004024000080240000C024077
:10096000001002400014024000180240001C024027
:100970000069084000D001207047426931EA020254
:1009800000D10904816170470AB18161704709048F
:10099000FBE7000001488068704700003800002035
:1009A0000248816802781144816070473800002055
:1009B0000B4810B5016841F400710160016841F411
:1009C00080610160016841F480710160032000F0E2
:1009D0006FF8002000F006F800F024F8002010BDA9
:1009E000003C024070B50D4D04464FF47A712878F2
:1009F000B1FBF0F00A490968B1FBF0F000F0F2FB3E
:100A000048B9102C07D200222146501E00F030F8C1
:100A100000206C6070BD012070BD00003800002017
:100A2000440000200A4808B5016841F48041016093
:100A3000006800F4804000900548001F016841F004
:100A400080510160006800F08050009008BD0000F7
:100A500044380240002809DB00F01F0201219140C8
:100A60004009800000F1E020C0F80011704700004C
:100A7000F0B40E4B1B680C46C3F30223C3F1070509
:100A8000042D00D90425191D072901D2002300E0F7
:100A9000DB1E012606FA05F1491E214099409E40C1
:100AA000761E16403143F0BC01F0FEBA0CED00E0BA
:100AB000064900F0070208684FF6FF03184040EAB5
:100AC0000220034A10430860704700000CED00E06C
:100AD0000000FA052DE9F0470E46050065D0DFF865
:100AE0001481D8F80000F7B200F00F00B04207D22E
:100AF00088F80070D8F8000000F00F00B04254D120
:100B000028683D4C810712D5400703D5206840F482
:100B1000E05020602878000703D5206840F460404A
:100B200020602068A96820F0F00008432060287841
:100B3000C0072DD0304968680839012812D0022832
:100B400013D0032811D00968890700292DDA2168FC
:100B500021F0030101432160FFF71CFF814641F2B0
:100B6000883A0EE009688903EFE709688901ECE734
:100B7000FFF710FFA0EB0901514502D90320BDE8A2
:100B8000F0872068696800F00C00B0EB810FEFD1AE
:100B9000D8F80010404601F00F01B14207D90770A4
:100BA000006800F00F00B04201D00120E7E728788C
:100BB000400705D52068E96820F4E050084320602C
:100BC0002878000706D52068296920F4604040EAAB
:100BD000C100206000F016F82168084AC1F3031133
:100BE000515CC840064908600020FFF7FBFE00206A
:100BF000C5E70000003C024008380240142F0008FE
:100C000044000020154810B5006810F00C0214488C
:100C100013D01449042A0FD0082A0ED10F4C241FD8
:100C20002268236802F03F025B0207D52068C0F308
:100C30008810A0FB010106E0084610BD2168C1F341
:100C40008811A1FB00010023FFF7BAFA2168C1F364
:100C50000141491C4900B0FBF1F010BD08380240C9
:100C60000024F40040787D012DE9F84F050076D08E
:100C70002878DFF8F8B2BE4CC00749D0DBF8001086
:100C80005846C1F38101012908D00068C0F38100F2
:100C900002280AD1201D0068400206D52068800382
:100CA00036D568680028E2D032E06868B0F5803F49
:100CB00010D0B0F5A02F206810D020F48030206034
:100CC000206820F4802020606868A0B1FFF762FEF1
:100CD00006460CE0206840F48030F4E740F48020C1
:100CE0002060F7E7FFF756FE801B642873D8206862
:100CF0008003F7D50CE0FFF74DFE064605E000BF88
:100D0000FFF748FE801B6428F0D820688003F7D4E2
:100D10002878DFF8608280074FF000093ED5DBF8C5
:100D20000010584611F00C0F09D00068C0F3810084
:100D300002280BD18D48001F0068400206D42068AD
:100D4000800715D5E868012809D111E0E868B8B135
:100D50000120C8F80000FFF71DFE064605E002E18D
:100D6000FFF718FE801B0228C0D820688007F7D53F
:100D70002068296920F0F80040EAC10020600DE0F9
:100D8000C8F80090FFF706FE064604E0FFF702FEF3
:100D9000801B02281FD820688007F7D42878000716
:100DA00022D5724E744869696C3671B101210160B7
:100DB000FFF7F0FD074604E0FFF7ECFDC01B02283B
:100DC00009D830688007F7D50EE0C0F80090FFF72B
:100DD000E1FD074605E083E0FFF7DCFDC01B0228CC
:100DE0007ED830688007F7D42878400768D5DFF8C8
:100DF0007CA100270AF1380ADAF80000C0000BD401
:100E0000DAF8001041F08051CAF80010DAF800005A
:100E1000012700F080500090584E3068C00510D473
:100E2000306840F480703060FFF7B4FD009005E05A
:100E3000FFF7B0FD0099401A022851D83068C0056C
:100E4000F6D54A4EA868683601280FD005283068C4
:100E500010D020F001003060306820F004003060D5
:100E6000A868B8B1FFF796FD00900FE0306840F039
:100E70000100F4E740F004003060F7E7FFF78AFD77
:100E80000099411A41F28830814264D83068800765
:100E9000F4D50EE0FFF77EFD009007E0FFF77AFD46
:100EA0000099411A41F28830814254D83068800755
:100EB000F4D42FB1DAF8001021F08051CAF80010F4
:100EC000A869C0B3DBF80010C1F3810102294AD040
:100ED0000228484607D0C8F86000FFF75BFD00E035
:100EE00039E005463AE04746C8F86000FFF752FD92
:100EF000064604E0FFF74EFD801B02282BD8206831
:100F00008001F7D4D5E907010843A96A1C4A4908BA
:100F100002EB01416A6A41EA8211084395F82C10FC
:100F200040EA01611148001F016001203866FFF7A7
:100F300031FD054605E014E0FFF72CFD401B0228BB
:100F400009D820688001F7D50BE000BFFFF722FD2C
:100F5000401B022802D90320BDE8F88F20688001D9
:100F6000F4D40020F8E70120F6E70000083802403A
:100F70000038024000004742800E474200700040A7
:100F80000000FFFF70B5040005D00025A56294F8AD
:100F9000510010B106E0012070BD84F85050204689
:100FA00000F030F8022084F851002068016821F038
:100FB00040010160D4E901010843D4E9031211435F
:100FC000084361690843218B01F400710843E1691A
:100FD0000843216A0843A16A084321680860A069A0
:100FE000042101EA1040616A0843216848602068D2
:100FF000C16921F40061C1616565012084F8510077
:10100000002070BD10B586B0044614216846FFF775
:101010000FF914492068884221D113480021026841
:1010200042F400420260006800F4004005900E485F
:101030001038026842F004020260006800F0040008
:1010400005904FF4A05000900220CDE9010103204B
:1010500003900620049069460448FFF7B1FB06B0F0
:1010600010BD0000003C0040403802400008024033
:101070002DE9F84F044690F8500000271D4616460B
:10108000894601280DD04FF0010B84F850B0FFF7CE
:1010900081FC804694F85100BA46012804D002270A
:1010A0008EE00220BDE8F88FB9F1000F7DD0002E50
:1010B0007BD0032084F85100C4F854A0C4F83090C9
:1010C000A686E686C4F838A0A4F83CA0A4F83EA002
:1010D000C4F844A0C4F840A0A068B0F5004F04D103
:1010E0002068016841F48041016020680168490678
:1010F00003D4016841F040010160E068B0F5006F81
:10110000606803D030B3012E24D040E008B1012E36
:101110001CD1206B21680088C86006E020688168C7
:10112000890709D5216B0988C160206B801C206369
:10113000E08E401EE08609E0FFF72CFCA0EB0800E3
:10114000A84202D3681C01D031E07DB3E08E0028B4
:10115000E4D11FE0206B21680078087306E0206866
:101160008168890709D5216B09780173206B401CC0
:101170002063E08E401EE08609E0FFF70BFCA0EB49
:101180000800A84202D3681C01D010E075B1E08EBF
:101190000028E4D142462946204600F09BFD08B1D4
:1011A00020206065A06820B107E008E0FFE7032782
:1011B00006E02068C16880680090606D00B101277A
:1011C00084F851B084F850A038466BE74FF0E02126
:1011D0000428086903D020F004000861704740F03B
:1011E0000400FAE710B5401EB0F1807F01D3012062
:1011F00010BD4FF0E02460610F21601700F054FF34
:101200000020A06107202061002010BD70477047BA
:1012100070B590F83C20012A19D0012400F83C4F09
:101220000222427050F83C3C5A689D6822F07006D9
:101230000A684968324325F0800529435A6050F80E
:101240003C2C9160447000210170084670BD022062
:1012500070BD10B5040003D094F83D0010B107E054
:10126000012010BD002084F83C00204600F00CF85E
:10127000022084F83D00211D206800F02FFE01208F
:1012800084F83D00002010BD08B5154A01681548D6
:1012900091420ED1016841F02001016000680022F6
:1012A00000F02000009011463720FFF7E1FB3720C7
:1012B00010E00D4A914211D1016841F48071016042
:1012C0000068002200F48070009011462D20FFF786
:1012D000CFFB2D20BDE80840FFF7BCBB08BD0000D8
:1012E0000014004040380240002000400168CA68F5
:1012F00042F00102CA600068816801F00701062916
:1013000003D0016841F001010160002070470168CD
:10131000CA6822F00102CA600068016A41F2111233
:10132000114207D1016A9210114203D1016821F0E4
:1013300001010160002070472DE9F041007F022883
:1013400030D1224C224D002620784FF65F7758B3DB
:101350002048FFF7DCFF1F48006846626660286887
:10136000016A394001622868016A01620421284645
:1013700000F0FDF961689FED181A08446178C1EB2F
:101380000141084400EE100A60601548F8EEC00AFA
:10139000667080EE810ADFED110A20EE200A80EDF2
:1013A000000A2670BDE8F081286846620948FFF708
:1013B0009DFF2868016A394001622868016A41F08E
:1013C0002001016201202070ECE7000030000020C5
:1013D000AC000020EC0000200024F4490000AA43E7
:1013E000040000202DE9F041044690F83C000D4631
:1013F00001283DD0012684F83C60022084F83D009D
:10140000AAB3042A46D02068082A55D0D5E9002777
:10141000E968036A23F480530362D0F81CC0036AAE
:101420002CF4407C4CEA07274FF6FF7C27F47047EA
:101430000CEA013139434FF4204723F4204307EAF3
:1014400002321A43C16102622068C16921F440611D
:10145000C1612068C169AA6841EA0221C0F81C1074
:1014600084F83D60002084F83C00BDE8F08101E094
:101470000220FAE7D5E90012EB68206800F0A0FD31
:101480002068816921F00C01816120688169AA6866
:1014900011430FE0D5E90012EB68206800F0D0FDA1
:1014A0002068816921F44061816120688169AA68AE
:1014B00041EA02218161D3E7D5E9002C2F7B016A43
:1014C00021F480710162C169036A21F0030141EADC
:1014D0000C0121F0F00C39074FF420674CEA116140
:1014E00023F4206307EA02221A43C16102622068E2
:1014F000C16921F00C01C1612068C169AA6811436A
:10150000ACE710B5040003D094F83D0010B107E03B
:10151000012010BD002084F83C00204600F00CF8AB
:10152000022084F83D00211D206800F0D7FC012036
:1015300084F83D00002010BD10B586B0044614218B
:101540006846FEF775FE2068B0F1804F27D1154838
:101550000021026842F001020260006800F0010010
:10156000059010481038026842F0020202600068DC
:1015700000F002000590082000900220CDE9010152
:101580000120CDE9031069460748FFF719F9002249
:1015900011461C20FFF76CFA1C20FFF75BFA06B01F
:1015A00010BD0000403802400004024010B502683F
:1015B000044631B1042908D008291AD00C2908D1D1
:1015C0001BE0D06840F0020002E0D06840F0040068
:1015D000D0600122206800F0E5FC2068816801F0FD
:1015E0000701062903D0016841F0010101600020D4
:1015F00010BDD06840F00800EAE7D06840F0100065
:10160000E6E770B50446006801694FF00005C9437C
:10161000890715D4C168C943890711D4E91E01613E
:1016200001202077206880698007204602D0FFF7DC
:1016300083FE04E000F098F8204600F096F8257745
:1016400020680169C943490717D4C168C9434907DC
:1016500013D46FF0040101610220207720688069B3
:1016600010F4407F204602D0FFF766FE04E000F051
:101670007BF8204600F079F8257720680169C94396
:10168000090716D4C168C943090712D46FF00801CD
:101690000161042020772068C0698007204602D0BD
:1016A000FFF74AFE04E000F05FF8204600F05DF826
:1016B000257720680169C943C90617D4C168C943A1
:1016C000C90613D46FF0100101610820207720684B
:1016D000C06910F4407F204602D0FFF72DFE04E0E1
:1016E00000F042F8204600F040F8257720680169B4
:1016F000C943C90708D1C168C943C90704D1891EB4
:101700000161204600F032F820680169C9430906EA
:1017100009D4C168C943090605D46FF0800101618D
:101720002046FFF773FD20680169C943490609D4C3
:10173000C168C943490605D46FF0400101612046E4
:1017400000F02AF820680169C94389060BD4C168F2
:10175000C943890607D46FF0200101612046BDE826
:101760007040FFF754BD70BD704770477047024628
:10177000002041B1042909D008290AD00C2901D13F
:101780001068006C70471068406B70471068806B81
:1017900070471068C06B70477047FEE72DE9F0474F
:1017A00086B014216846FEF743FD574800240168BF
:1017B00041F010010160016801F01001059101681C
:1017C00041F004010160016801F004010591016824
:1017D00041F080010160016801F08001059101681C
:1017E00041F001010160016801F00101059101680A
:1017F00041F002010160016801F0020105910168F8
:1018000041F0080101600068DFF8008100F0080085
:101810000590002202214046FFF7B6F8DFF8F0906D
:1018200000226A214846FFF7AFF84FF6FE70032505
:10183000CDE90005DFF8DCA0694602945046FEF7CA
:10184000BFFF4EF6FF30CDE90005694602943248ED
:10185000FEF7B6FF0095CDE9015469462F48FEF723
:10186000AFFF49F6FD10CDE90005694602944046F8
:10187000FEF7A6FF022601270096CDE9017469460E
:1018800040460394FEF79CFF4FF6E770CDE9000554
:10189000DFF88C80694602944046FEF791FF4FF6D0
:1018A0001570CDE90005694602944846FEF788FFA9
:1018B0006A200090CDE90174694648460394FEF71A
:1018C0007FFF80208DE8510069464846FEF778FF8B
:1018D000102000901348CDE9010469464046FEF708
:1018E0006FFF0097CDE9014669465046FEF768FF55
:1018F000002211460A20FFF7BBF80A20FFF7AAF8DA
:1019000006B0BDE8F0870000303802400000024019
:10191000000C02400010024000080240001C02407F
:101920000004024000001110104810B50E4901607B
:101930004FF482714160002102228160C0E90312EC
:1019400001224261520282610822C0E907214162FC
:1019500081620A21C162FFF715FB002803D0BDE8B0
:101960001040FEF70CBF10BD003C004054000020AA
:101970000B4810B509490160002140F2473241602F
:10198000C0E9021201618161FFF763FC002803D006
:10199000BDE81040FEF7F3BE10BD0000002000407F
:1019A0002C01002010B586B000241848059404943A
:1019B0000094019402944FF08041039401605321FC
:1019C000C0E901144FF6FF71C0E903148461FFF709
:1019D00098FD08B1FEF7D3FE049404A90B480594C2
:1019E000FFF716FC08B1FEF7CAFE0120CDE9004062
:1019F00002940422694605480394FFF7F3FC00288B
:101A000001D0FEF7BCFE06B010BD0000AC00002007
:101A10001CB500240E4800940C4901940160532128
:101A2000C0E901144FF6FF718461C160FFF711FC3A
:101A300008B1FEF7A4FE0094694605480194FFF73B
:101A4000E7FB002801D0FEF79AFE1CBD0014004001
:101A5000EC000020FEE7704770B5002404F1B000F0
:101A6000C0B2002100F00EF90021084600F00AF98A
:101A70000021102000F006F900250121002000F0CF
:101A800001F96D1CEDB2802DF7D3641CE4B2082C73
:101A9000E4D370BD10B5494C012202212046FEF767
:101AA00073FF7820FEF76CFE002202212046FEF72D
:101AB0006BFF7820FEF764FE012202212046FEF72C
:101AC00063FF0021AE2000F0DDF80021022000F0CD
:101AD000D9F80021102000F0D5F80021402000F0B6
:101AE000D1F80021812000F0CDF80021FF2000F086
:101AF000C9F80021A12000F0C5F80021C82000F09D
:101B0000C1F80021A62000F0BDF80021A82000F0B7
:101B1000B9F800213F2000F0B5F80021D32000F0F3
:101B2000B1F80021084600F0ADF80021D52000F002
:101B3000A9F80021802000F0A5F80021D92000F0AC
:101B4000A1F80021F12000F09DF80021DA2000F03A
:101B500099F80021122000F095F80021DB2000F018
:101B600091F80021402000F08DF80021202000F0A5
:101B700089F80021022000F085F800218D2000F076
:101B800081F80021142000F07DF80021A42000F04D
:101B900079F80021A62000F075F80021AF2000F0B0
:101BA00071F80021AF2000F06DF8FFF755FF00211C
:101BB000BDE81040084600F003B80000000C0240E9
:101BC00010B50446B031C8B2002100F05BF8102017
:101BD00040EA1410002100F055F804F00F00BDE8B1
:101BE000104040F00100002100F04CB82DE9F04118
:101BF000203A00240D468046D7B27F2803D9002022
:101C00008D1C8046EDB22946FFF7DAFF0F4E00BF6C
:101C100004EB07100121305C00F034F8641CE4B2DE
:101C2000082CF5D36D1CE9B24046FFF7C9FF00242C
:101C300004EB071030440121007A00F023F8641C03
:101C4000E4B2082CF4D3BDE8F0810000242F000892
:101C50002DE9F04117460E46044600250CE03146BA
:101C60002046FFF7C3FF0834E4B2782C02D90024E1
:101C7000B61CF6B26D1CEDB27A5D002AEFD1BDE85C
:101C8000F081000013B5104C09B1012200E00022E0
:101C900008212046FEF778FE002220212046FEF78C
:101CA00073FE4FF47A73012269460848FFF7E0F9A2
:101CB000012220212046FEF767FE0122082120464E
:101CC000FEF762FE1CBD0000000C02405400002024
:101CD0007047000038B504461248134B0068B0FB4B
:101CE000F3F04FF47A73584300906068B0F5827F48
:101CF0000DD10B46009200228021204600F016F8FC
:101D000070B1606D40F020006065032038BD009820
:101D100030B1401E009020688068C0430006F6D5B0
:101D2000002038BD4400002000366E012DE9F0414E
:101D30001D4617460E460446DDF8188008E0681C6C
:101D400006D0FEF727FEA0EB0800A8420BD255B143
:101D50002068806836EA000030D00020B842EED11A
:101D60000020BDE8F0812068416821F0E001416079
:101D70006068B0F5827F0BD1A068B0F5004F02D04B
:101D8000B0F5806F04D12068016821F04001016046
:101D9000A06AB0F5005F09D12068016821F4005104
:101DA00001602068016841F400510160012084F85D
:101DB0005100002084F850000320D2E70120CDE735
:101DC0007047FEF7EDBD000030B593B03021684696
:101DD000FEF72EFA14210CA8FEF72AFA194800255E
:101DE000016841F080510160006800F0805011905E
:101DF0001548016841F4804101600068022400F444
:101E000080401190012003901020049000940694CB
:101E10000820CDE90750A820CDE9090404200B9043
:101E20006846FEF721FF0CA90F2081E831004FF42E
:101E3000A0500F90E002109005210CA8FEF74AFE7A
:101E400013B030BD403802400070004010480168B7
:101E500041F4700101600F48016841F00101016027
:101E60000C4A00210832116002680B4B1A400260D4
:101E7000031D0A4A1A60026822F4802202600548A3
:101E80000C30016002495806803908607047000034
:101E900088ED00E000380240FFFFF6FE103000241D
:101EA0000148FFF7AEBB0000AC00002010B50448AD
:101EB000FFF7A7FB03484178491C417010BD0000A3
:101EC000EC0000203000002010B50348FFF799FB1C
:101ED000BDE8104000F06CBD2C010020F0B5026898
:101EE000254C264D264E274F274B4FF0804CA042C5
:101EF00009D0604507D0A84205D0B04203D0B8420F
:101F000001D0984204D122F0700E4A6842EA0E02D3
:101F1000A0421BD0604519D0A84217D0B04215D0BE
:101F2000B84213D0984211D0184DA8420ED0184D87
:101F3000A8420BD0174DA84208D0174DA84205D093
:101F4000164DA84202D0164DA84203D122F4407586
:101F5000CA682A434D6922F080022A4302608A68D7
:101F6000C2620A688262A04201D0984201D1096926
:101F7000016301214161F0BD000001400004004007
:101F800000080040000C00400004014000400140F7
:101F9000004401400048014000180040001C00407F
:101FA0000020004010B501F01F030121046A994090
:101FB0008C430462016A9A401143016210BD000023
:101FC00070B5046A24F0010404628469056A154E40
:101FD000B04214D0B0F1804F11D0134EB0420ED0A9
:101FE000124EB0420BD0124EB04208D0114EB04249
:101FF00005D0114EB04202D0104EB04203D124F0B1
:102000000304144301E044F001041A0724F0F0042F
:1020100044EA126225F00A0301F00A0119438261C1
:10202000016270BD00000140000400400008004053
:10203000000C004000040140004001400018004036
:1020400030B5046A24F0100404628469056A24F43B
:10205000407444EA022222F470444FF6FF7202EA0E
:1020600003322243A02425F0A00304EA01111943FE
:102070008261016230BDFEE70FB41CB5024600204C
:1020800007AC00290BD0491ECDE90021054B6A465B
:102090002146069800F0EAF8009A002111701CBC55
:1020A0005DF814FB9B2900080907090E002804DBD2
:1020B00000F1E02080F80014704700F00F0000F1FC
:1020C000E02080F8141D704702E008C8121F08C104
:1020D000002AFAD170477047002001E001C1121FA9
:1020E000002AFBD1704700002DE9FF5F82B000217C
:1020F000DDE90430020DDDF840B0034318D044F6AA
:102100001050A2F2FF3242431514119801281FD03B
:10211000A5EB0B00401C5FEA000A4FF000064E4F93
:10212000DFF83891B046504615D5CAF1000413E0E7
:10213000119801244AA3012801D16FEA0B010298EA
:10214000119AC0E90031C0E9024206B0BDE8F09F33
:10215000CBF10000DFE704460021404A491842EB7A
:102160000450CDE9001012E0E00707D032463B46AC
:1021700040464946FEF7DBF98046894632463B46F3
:1021800010461946FEF7D3F906460F466410002C98
:10219000EAD1DDE90401DDE90023BAF1000F06DA36
:1021A000FEF7C5F942464B46FEF7C1F905E0FEF7DA
:1021B00030FA42464B46FEF72CFA04460E46002201
:1021C000284BFEF7ADFA03D84FF0FF30014607E089
:1021D0000022254B20463146FEF74BF8FEF788FAE1
:1021E000102409E0002C0ADB0A220023FDF7E8FF97
:1021F000039B30321A55641E50EA0102F2D1641C6E
:10220000039AC4F111031444119A012A03D0012244
:1022100008430DD10AE0084304D000204FF0110B11
:10222000119072E7A3EB0B056D1E0DE05B4504DD1D
:102230004FF0000205F1010504E003DA4FF000025F
:10224000A5F10105002AECD002981199C0E90231EC
:10225000C0E9004579E70000000014400000F03FAD
:10226000300000000000F0430000E03F2DE9FF4F88
:1022700095B09B468946064600250FE2252877D172
:1022800000242746F84A0121059400E0044316F88B
:10229000013F203B01FA03F01042F7D130782A28A1
:1022A00011D06FF02F033078A0F13002092A16D830
:1022B000059A44F0020402EB820203EB420210444E
:1022C000761C0590EFE759F8042B0592002A03DAF3
:1022D000504244F40054059044F00204761C3078D7
:1022E0002E2816D116F8010F44F004042A280DD028
:1022F0006FF02F023078A0F13003092B09D807EBDB
:10230000870302EB4303C718761CF3E759F8047BF5
:10231000761C30786C280FD006DC4C2817D0682843
:102320000DD06A2814D104E0742810D07A280FD177
:102330000DE044F400140AE044F4801401E044F495
:1023400040147278824202D104F58014761C761C07
:10235000307866280BD013DC582877D009DC0028A9
:1023600075D04528F6D04628F4D047281AD19DE1EB
:1023700018E0632835D0642879D0652812D195E11A
:10238000702873D008DC6728F1D069286FD06E28D8
:102390000DD06F2806D1B5E073282CD0752875D0E4
:1023A000782874D05A46179990476D1C75E1C4F38C
:1023B0000250022809D003280DD0D9F800100428B3
:1023C0000DD00D6009F1040967E1D9F80010EA1792
:1023D000C1E90052F6E7D9F800100D80F2E70D7060
:1023E000F0E719F8041B8DF8001000208DF80100AB
:1023F000EA46012003E059F804AB4FF0FF306107D3
:102400004FF0000102D40DE008F101018846B94205
:102410000FDA8045F8DB1AF808100029F4D108E03B
:1024200008F1010188468142FADB1AF808100029F8
:10243000F6D105985B46A0EB080721463846179A67
:1024400000F094FA284400EB080507E04DE029E18C
:102450000DE01AF8010B5A4617999047B8F1010898
:10246000F7D25B4621463846179A13E142E00A222A
:102470000092C4F302524FF0000A022A08D059F821
:1024800004CB032A4FEAEC710AD00DE029E02AE0E0
:1024900009F1070121F00702F2E802C1914609E0C3
:1024A0000FFA8CFC4FEAEC71042A03D14FFA8CFC32
:1024B0004FEAEC71002907DA0A460021DCF1000C32
:1024C00061EB02012D2202E0220504D52B228DF8BA
:1024D0000420012203E0E20701D02022F7E7904622
:1024E00059E00A2102E010220DE010214FF0000A0D
:1024F00000910BE010224FF0000A44F0040408277A
:10250000009203E008224FF0000A0092C4F3025246
:10251000022A05D059F804CB0021032A08D009E08B
:1025200009F1070121F00702F2E802C1914605E036
:102530001FFA8CFC042A01D10CF0FF0C4FF00008AC
:10254000220728D5702806D0009B83F0100353EA99
:102550000A0305D00EE040228DF80420012208E095
:102560005CEA010206D030228DF804208DF80500C7
:1025700002229046009B83F0080353EA0A030AD123
:102580005CEA010201D1620705D530228DF80420F2
:102590004FF001087F1E582804D034A003900EA8E5
:1025A00002900DE036A0F9E753466046009AFDF729
:1025B00007FE84460398825C0298401E02900270D7
:1025C0005CEA0100F0D1029806A9081A00F1200A7D
:1025D000600702D524F4803400E00127574502DD6E
:1025E000A7EB0A0000E0002000EB0A01009005982C
:1025F0004144401A0590E00306D45B462146179AF1
:10260000059800F0B3F90544002706E001A85A46F2
:10261000C05D179990476D1C7F1C4745F6DBE003B2
:102620000CD55B462146179A059800F09FF90544A2
:1026300004E030205A46179990476D1C0099481EB7
:1026400000900029F5DC08E0029802995A460078CB
:10265000491C0291179990476D1CBAF10001AAF12B
:10266000010AF1DC65E10000092801003031323354
:1026700034353637383961626364656600000000BE
:1026800030313233343536373839414243444546A8
:102690000000000000F058F90544761C307800284E
:1026A0007FF4ECAD19B02846BDE8F08F620700D486
:1026B000062709F1070222F0070CFCE80223E14695
:1026C00003F000485FEA080C02D00FF2702C0DE016
:1026D0005FEA045C02D50FF2682C07E05FEAC47C75
:1026E00002D00FF2602C01E0AFF2700C4FF0FF3817
:1026F00023F00043CDF850C065280CD006DC4528F7
:1027000009D046281DD047283DD13DE0662818D085
:1027100067287ED138E00021112F01DB112000E075
:10272000781CCDE9000106A90EA8FFF7DDFCDDE964
:102730000F010E9A03910021009207F1010A049102
:102740004DE04FF000400097CDE9011006A90EA81A
:10275000FFF7CAFCDDE90F0203920E9B11990022DC
:10276000DDF80CA00093049211B9791C00EB010A6A
:10277000B7EB0A0004D4C0F1FF3007F1010A04905E
:10278000AAEB0700019044E0012F00DA01270021A5
:10279000112F01DD112000E03846CDE9000106A926
:1027A0000EA8FFF7A1FCDDE90F010E9A03910021AD
:1027B00004910092BA4621070CD40399514500DADE
:1027C0008A46BAF1010F05DD009AAAF10101515CB8
:1027D000302908D0B84202DA10F1040F06DA0121DC
:1027E000CDE9011015E0AAF10101E9E7002805DCB7
:1027F000049901440491AAEB000102E0411C5145F7
:1028000000DD8A460499401A401C01904FF00040B8
:102810000290200704D40198504501DBCDF80480D4
:1028200000208DF84F0002980DF14F07B0F1004FD6
:1028300025D02B200E9002984FF0020800280CDAC9
:10284000404202902D200E9007E00A210298FDF7E9
:10285000CAFD3031029007F8011DB8F10001A8F15E
:102860000108F2DC02980028EFD1791E0E9808705A
:10287000307800F0200040F0450007F8020D12A863
:10288000C01B00F107081498007800B1012000EB8C
:102890000A01019801EBE07105984144401A401E7D
:1028A0000590E00306D45B462146179A059800F090
:1028B0005DF805441498007818B15A461799904766
:1028C0006D1CE00324D55B462146179A059800F05D
:1028D0004DF805441CE00498002807DBDDE90301FE
:1028E000884203DD0098405C179901E01799302079
:1028F0005A469047049805F10105401C0490019840
:10290000401E019004D12E205A46179990476D1C05
:10291000BAF10001AAF1010ADDDC05E017F8010BAC
:102920005A46179990476D1CB8F10001A8F10108AB
:10293000F4DC5B462146179A0598ABE62D000000B3
:102940002B000000200000002DE9F0410446002586
:102950001E461746880404D405E039462020B047B7
:102960006D1C641EF9D52846BDE8F0812DE9F041C3
:10297000044600251E469046C80301D5302700E0D6
:102980002027880404D505E041463846B0476D1C31
:10299000641EF9D52846BDE8F0814A68002A06D0B1
:1029A0000A68531C0B6010704868401E48607047EE
:1029B00010B5074C07492068401C20600968884210
:1029C00005D102210448FDF7D8FF0020206010BD8A
:1029D0002C000020280000200000024010B5044612
:1029E0000420FEF7F3FB0148046010BD48000020FE
:1029F00070B5054600244FF47A7603E0304600F0C7
:102A000005F8641CAC42F9D370BD000070B54FF0FE
:102A1000E024002265690949A36909684843A1695E
:102A20009942FCD002D2A3EB010302E0A5EB010620
:102A300033441A440B468242F1D370BD4800002053
:102A4000F0B5FDEEC00A2DED028B054610EE904A62
:102A500083B00F4600EE904A2046F8EEE00A30EED2
:102A6000608A00F0C7F82844801D00F045F906464A
:102A700018EE100AFDF7A4FCCDE900010EA2E91C36
:102A80003046FFF7F9FA2E213046FDF7E8FB054600
:102A9000204600F0AFF8014608A2204600F092F868
:102AA0002946FDF7D0FB03B03946BDEC028BBDE8EB
:102AB000F040FDF7C8BB00002566000000000000E4
:102AC00010B5002821D0114B0022001F196803E027
:102AD000814203D80A4649680029F9D152B11368E6
:102AE000841A9C4204D1006818441060104602E029
:102AF000506000E0186039B102680B1A934203D1AC
:102B00000B681A4402604968416010BD4C00002007
:102B100070B505462DED028BF0EE408A2548FEF794
:102B2000E5FB254C254894ED000A00EB8500B8EE46
:102B3000C08A90ED000AC8EE800A10EE900AB0F14B
:102B4000804F02DB00F0D4F924E010EE900AB0F1DF
:102B50007F5F01DB32201CE010EE900A18498842AA
:102B600001DB282015E010EE900AB0F17E5F01DB5A
:102B70001E200EE010EE900AB0F17D5F01DB1920FF
:102B800007E010EE900AB0F17C5F01DB142000E05A
:102B90000F20206094ED000AB8EEC00AB4EE408A1F
:102BA000F1EE10FA03D00349002009684862BDEC39
:102BB000028B70BD2C01002028000020180000208E
:102BC0000000A03F2DE9F041064617460C46481D7F
:102BD00000F092F80546334605A2611CFFF74CFA57
:102BE00039462846FDF72FFB2846BDE8F081000056
:102BF0002564000000210A22401C02E090FBF2F054
:102C0000491C0028FAD1084670470000FDF7D0FEA5
:102C1000FFF7DAF8FEF7C2FDFEF786FEFEF7C2FE0A
:102C2000FEF7F6FEFEF7A4FEA820FFF7D7FEFEF79C
:102C300031FFFEF711FF00F095F81E4C00211EA297
:102C400020600846FFF704F81FA202210020FEF7CB
:102C5000FFFF20A204210020FEF7FAFF20A2062198
:102C60000020FEF7F5FF214E214D307898B9012262
:102C700040212846FDF788FE0A20FFF7C7FE002204
:102C800040212846FDF780FE6420FFF7BFFE0421A7
:102C90001848FEF78BFC94ED010A206800F0C8F894
:102CA00094ED010A2068FFF733FFFA20FFF7A0FE3A
:102CB000DBE7000000000020416C61726D20537959
:102CC0007374656D00000000566F6C3A204E2F4102
:102CD000000000004469733A204E2F4100000000BC
:102CE0005374613A204E2F41000000003000002054
:102CF000000C0240AC000020F0B50B30154D20F068
:102D000007010024144A0FE003688B420BD38B4267
:102D100005D95E1A43184768C3E9006700E04368B5
:102D2000136002C004E0021D10680028ECD12046A8
:102D3000002802D1286808B10020F0BD064A0748E3
:102D40001060074A121A22F00702C0E9002401208D
:102D50002860D7E7500000204C00002074010020BC
:102D6000702100202DE9F041002423A221462046B5
:102D7000FEF76EFF23A202210020FEF769FF254E19
:102D8000254DDFF898801EE080213046FDF7F0FDEC
:102D9000012800D1641CE01704EB907020F00300C0
:102DA000201A1FA255F820000321FFF70BFF07464A
:102DB000024604210020FEF74BFF3846FFF780FE55
:102DC000C820FDF7DDFC01214046FDF7D1FD0028BC
:102DD000DAD0FEF741FE002112A20846FEF738FFC6
:102DE0004FF47A70FDF7CCFCE01704EB907020F004
:102DF0000300201ABDE8F08153797374656D204992
:102E00006E69740053657420566F6C204C6576654E
:102E10006C3A0000000C0240080000200010024044
:102E20006B560000537563636573732100000000E7
:102E300070B523492DED028BF0EE408A51F82050F9
:102E4000204901EB800020A190ED008A0120FFF7CE
:102E5000F7FD0446024604212820FEF7F9FE20462D
:102E6000FFF72EFE19A203212846FFF7ABFE04460A
:102E7000024602212820FEF7EBFE2046FFF720FE47
:102E8000C8EE880A10EE900AB0F1804F01DB10A264
:102E90000EE010EE900AB0F17F5F01DB0EA207E0BA
:102EA00010EE900AB0F17E5F01DB0DA200E00EA2F1
:102EB000BDEC028B0621BDE870402820FEF7C8BE9D
:102EC00008000020180000206D2000006B56200034
:102ED00053616665202000005269736B202000005A
:102EE00044616E676572000048617A617264000037
:102EF00010B5002202210548FDF746FD0448FEF703
:102F000006FA034900200968486210BD000002402B
:102F10002C0100200000000000000000010203045A
:102F20000607080900000000000000000000000083
:102F300000000000000000F8000000000000003366
:102F40003000000000100C06100C0600000000000D
:102F50000000000040C07840C0784000043F0404F6
:102F60003F040400007088FC08300000001820FFB7
:102F7000211E0000F008F000E018000000211C03F2
:102F80001E211E0000F00888700000001E2123246E
:102F90001927211010160E0000000000000000008C
:102FA00000000000000000E018040200000000071C
:102FB0001820400000020418E00000000040201823
:102FC00007000000404080F0804040000202010FF6
:102FD00001020200000000F0000000000101011FDA
:102FE00001010100000000000000000080B070003E
:102FF00000000000000000000000000000010101CE
:10300000010101010000000000000000003030005C
:103010000000000000000000806018040060180636
:103020000100000000E010080810E000000F102070
:1030300020100F00001010F8000000000020203FBA
:103040002020000000700808088870000030282444
:1030500022213000003008888848300000182020E5
:1030600020110E000000C02010F80000000704240A
:10307000243F240000F8088888080800001921204F
:1030800020110E0000E0108888180000000F1120A9
:1030900020110E0000380808C83808000000003F62
:1030A000000000000070880808887000001C2221C1
:1030B00021221C0000E010080810E000000031226E
:1030C00022110F00000000C0C0000000000000300E
:1030D0003000000000000080000000000000806060
:1030E00000000000000080402010080000010204E1
:1030F00008102000404040404040400004040404C8
:103100000404040000081020408000000020100883
:1031100004020100007048080808F00000000030B8
:1031200036010000C030C828E810E0000718272446
:1031300023140B000000C038E0000000203C2302F4
:103140000227382008F8888888700000203F202057
:1031500020110E00C0300808080838000718202089
:103160002010080008F808080810E000203F202080
:1031700020100F0008F88888E8081000203F202061
:103180002320180008F88888E8081000203F200055
:1031900003000000C030080808380000071820208D
:1031A000221E020008F808000008F808203F21014C
:1031B00001213F20000808F8080800000020203FF7
:1031C0002020000000000808F8080800C080808067
:1031D0007F00000008F888C028180800203F200160
:1031E0002638200008F8080000000000203F2020BA
:1031F0002020300008F8F800F8F80800203F003FD1
:10320000003F200008F830C00008F808203F2000E8
:1032100007183F00E01008080810E0000F102020F9
:1032200020100F0008F808080808F000203F2101CE
:1032300001010000E01008080810E0000F18242425
:1032400038504F0008F8888888887000203F200098
:10325000030C30200070880808083800003820214E
:1032600021221C00180808F8080818000000203F58
:103270002000000008F808000008F808001F2020BF
:1032800020201F000878880000C838080000073890
:103290000E010000F80800F80008F800033C0700E1
:1032A000073C0300081868808068180820302C0349
:1032B000032C30200838C800C83808000000203F20
:1032C0002000000010080808C8380800203826210F
:1032D00020201800000000FE020202000000007F13
:1032E00040404000000C30C0000000000000000121
:1032F0000638C00000020202FE000000004040400C
:103300007F00000000000402020204000000000030
:1033100000000000000000000000000080808080AD
:103320008080808000020204000000000000000095
:10333000000000000000808080800000001924222E
:1033400022223F2008F8008080000000003F11206A
:1033500020110E000000008080800000000E11206F
:1033600020201100000000808088F800000E11204D
:1033700020103F200000808080800000001F22225B
:1033800022221300008080F0888888180020203FC7
:10339000202000000000808080808000006B9494DA
:1033A0009493600008F8008080800000203F210096
:1033B00000203F2000809898000000000020203F5F
:1033C00020200000000000809898000000C080804D
:1033D000807F000008F8000080808000203F2402E9
:1033E0002D302000000808F8000000000020203FD9
:1033F000202000008080808080808000203F20008E
:103400003F20003F8080008080800000203F21001E
:1034100000203F200000808080800000001F2020CE
:1034200020201F00808000808000000080FFA120FD
:1034300020110E000000008080808000000E11200E
:1034400020A0FF80808080008080800020203F219D
:103450002000010000008080808080000033242450
:1034600024241900008080E0808000000000001FFC
:10347000202000008080000000808000001F2020AD
:1034800020103F20808080000080808000010E306E
:103490000806010080800080008080800F300C03CF
:1034A0000C300F0000808000808080000020312ED2
:1034B0000E312000808080000080808080818E70AE
:1034C0001806010000808080808080000021302C60
:1034D0002221300000000000807C02020000000079
:1034E000003F404000000000FF000000000000001E
:1034F000FF0000000002027C800000000040403F0E
:1035000000000000000601010202040400000000A7
:1035100000000000343500080000002054000000C6
:10352000C820000888350008540000201C610000F5
:10353000D8200008000000000000C8426E00000013
:10354000DC000000F4010000EE0200000000C03FBB
:10355000000040400000A0400000C040000000000B
:10356000000000000000000000000000010000005A
:1035700010000000000000000024F4000000000023
:08358000000000000000000043
:040000050800018965
:00000001FF
