:020000040800F2
:1000000068A100205D0200087B1C00086919000837
:10001000791C0008590800085B2400080000000053
:100020000000000000000000000000009D0100082A
:100030005B08000800000000F90100087D210008AD
:1000400077020008770200087702000877020008AC
:10005000770200087702000877020008770200089C
:1000600077020008770200085D08000877020008A0
:10007000770200087702000877020008770200087C
:10008000770200087702000877020008770200086C
:10009000770200087702000877020008770200085C
:1000A000770200087702000877020008770200084C
:1000B0008122000877020008770200087702000812
:1000C000770200087702000877020008770200082C
:1000D000770200087702000877020008770200081C
:1000E000770200087702000877020008770200080C
:1000F000B5220008A922000877020008770200084C
:1001000077020008770200087702000877020008EB
:100110007702000877020008770200088D220008A5
:1001200077020008770200087702000877020008CB
:1001300077020008770200087702000877020008BB
:1001400077020008770200087702000877020008AB
:10015000770200087702000877020008770200089B
:10016000770200087702000877020008770200088B
:1001700077020008770200087702000800000000FC
:100180007702000877020008DFF80CD000F052FB7D
:1001900000480047F52E000868A100202C4B196884
:1001A0000868B0E8F04F80F30988BFF36F8F4FF015
:1001B000000080F3118870470000000008480068C4
:1001C000006880F308884FF0000080F3148862B65E
:1001D00061B6BFF34F8FBFF36F8F00DF00BF00BF6B
:1001E00008ED00E0DFF80C00016841F470010160E7
:1001F000704700BF88ED00E0EFF30980BFF36F8F19
:10020000134B1A681EF0100F08BF20ED108A20E96A
:10021000F04F106009B44FF0200080F31188BFF355
:100220004F8FBFF36F8F03F05DFB4FF0000080F343
:10023000118809BC19680868B0E8F04F1EF0100F6B
:1002400008BFB0EC108A80F30988BFF36F8F704746
:1002500064000020EFF305807047000006488047E7
:1002600006480047FEE7FEE7FEE7FEE7FEE7FEE79B
:10027000FEE7FEE7FEE7FEE72D2200088901000801
:100280002DE9F05F0546002092469B4688460646CB
:10029000814640241BE0284641464746224600F05E
:1002A00039F953465A46C01A914110D3114618469F
:1002B000224600F020F92D1A67EB01084F4622462E
:1002C0000120002100F017F917EB00094E41201E14
:1002D000A4F10104DFDC484631462A464346BDE826
:1002E000F09F40EA01039B0703D009E008C9121FF1
:1002F00008C0042AFAD203E011F8013B00F8013BE0
:10030000521EF9D27047D2B201E000F8012B491E0B
:10031000FBD270470022F6E710B513460A460446A2
:100320001946FFF7F0FF204610BD421E12F8013FAC
:10033000002BFBD111F8013B02F8013B002BF9D156
:100340007047CAB2401E10F8011F8A4202D000292D
:10035000F9D1002070472DE9FE4F804681EA030065
:10036000C00F0C46009021F0004123F00045B8EB8F
:100370000200A94105D24046214690461C460B4644
:10038000024623F00040104347D0270DC7F30A0070
:10039000C3F30A510290401A019040286BDAC3F36C
:1003A000130040F4801B0098924620B10023D2EB4A
:1003B000030A63EB0B0B01985946C0F1400250460B
:1003C00000F099F806460D4650465946019A00F04D
:1003D000B1F810EB08006141002487EA115284EA69
:1003E000E7731A4340D0009A62B3019A012A4FEA98
:1003F000075215DC001B61EB02014FF0004202EADC
:100400000752CDE90042001C41F5801132462B46CF
:1004100000F0B1F803B0BDE8F08F40462146F9E79F
:10042000001B61EB0201001C41F5801300185B41C9
:100430002018A2F5001747EB030140EAD570B61962
:100440006D4111E06D084FEA360645EAC0754FEA86
:100450000752001B61EB0201001C41F580114908A5
:100460004FEA30000019514132462B4603B0BDE837
:10047000F04F00F071B80098012240000023D0EB4B
:10048000020263EBE073009821464FEAE074B8EB98
:10049000000061EB0401E9E783F000435BE781F0D2
:1004A000004158E700F0004230F000400AD0C10D92
:1004B00001F56071C0F3160042EA0151C20840071D
:1004C0001143704700200146704730B50B46014686
:1004D00000202022012409E021FA02F59D4205D3E3
:1004E00003FA02F5491B04FA02F52844151EA2F18D
:1004F0000102F1DC30BD202A04DB203A00FA02F1CF
:10050000002070479140C2F1200320FA03F3194301
:1005100090407047202A04DB203A21FA02F00021A3
:10052000704721FA02F3D040C2F120029140084303
:1005300019467047202A06DBCB17203A41FA02F011
:1005400043EAE07306E041FA02F3D040C2F1200230
:10055000914008431946704710B5141E73F100040A
:1005600008DA401C41F1000192185B411A4301D1A5
:1005700020F0010010BD2DE9F04D92469B4611B1CF
:10058000B1FA81F202E0B0FA80F220329046FFF731
:10059000B2FF04460F4640EA0A0041EA0B01534607
:1005A0005A46084313D0114653EA010019D0C8F146
:1005B00040025046FFF7AEFF05460E4650465946EC
:1005C0004246FFF798FF084305D0012004E020468B
:1005D0003946BDE8F08D0020054346EAE0762C431D
:1005E00037430A986305E40AA0EB08000022FD0ADD
:1005F00044EA47540A3002D500200146E9E70105E4
:1006000010196941DDE9084500196941BDE8F04D5F
:10061000A2E72DE9FE4F81EA030404F0004421F033
:10062000004100944FF0000B23F0004350EA010416
:100630005ED052EA03045BD0C3F30A54C1F30A55F7
:100640002C44A4F2F3340194A0FB0254C1F313012F
:1006500041F48011C3F3130343F4801301FB0244FC
:1006600000FB034E840A970A44EA815447EA835701
:10067000A4FB076802958D0A05FB07854FEA932CBA
:1006800004FB0C542705029D4FEA065847EA16372B
:10069000B5EB08056EEB070C870E920E47EA811743
:1006A00042EA8312A7FB0201B6EB0B0164EB0004E4
:1006B0002B0D43EA0C335E1844EB1C50DA465146CE
:1006C000E7FB0201C5F313044FEA0B3343EA14536B
:1006D0004FEA0432019C43EA0603A4F10C0402949D
:1006E000009CCDE900B4FFF746FF03B0BDE8F08FF2
:1006F00000200146F9E72DE9F04D81EA030404F0FA
:10070000004B21F0004514464FF0000A23F0004151
:1007100050EA050220D054EA01021DD0C5F30A5761
:100720000246C5F31303C1F31300C1F30A5640F4A4
:10073000801543F48013A7EB0608101BD64608F279
:10074000FD3873EB050002D308F1010801E09218AF
:100750005B41B8F1000F03DA00200146BDE8F08DDF
:1007600000204FF48011064684460EE0171B73EB01
:10077000050705D3121B63EB050306434CEA010C86
:1007800049084FEA300092185B4150EA0107EDD169
:1007900052EA030012D082EA040083EA050108430A
:1007A00005D0101BAB4106D20122002306E0002237
:1007B0004FF0004302E06FF0010253101AEB060005
:1007C0004CEB085110EB0A0041EB0B01BDE8F04D7A
:1007D000FFF7C2BEC1F30A52C1F3130140F2FF3367
:1007E00041F480119A4202DA00200146704740F23B
:1007F00033439A42A2F2334202DC5242FFF78ABEEE
:10080000FFF779BE30B5041E71F1000404DB4FF030
:100810000044404264EB0101141E73F1000405DB47
:100820001C464FF00043524263EB0403994208BF59
:10083000904230BD064C074D06E0E06840F00103F1
:1008400094E8070098471034AC42F6D3FFF7A0FCB9
:100850006443000884430008FEE7704710B5102089
:1008600000F01CF801491020086010BD143C014044
:100870007047000070B5044600F0FEF80546601CA5
:1008800002D004480078044400F0F6F8401BA0426F
:10089000FAD370BD5000002070470000044910B525
:1008A0000A68024202D00860FFF7F6FF10BD0000A0
:1008B000143C01402DE9F84FDFF87CB100224FF0E5
:1008C00001084FF0030A4FF00F090BF1040E00BFAF
:1008D0000B6808FA02F42340A3426ED14D68022D42
:1008E00001D0122D0ED1D50800EB850CDCF820507C
:1008F0005607F70E09FA07F6B5430E69BE402E43B8
:10090000CCF82060066855000F790AFA05FC07F05C
:10091000030726EA0C06AF40374307604E68012EF6
:1009200005D0022E03D0112E01D0122E0ED18668D2
:10093000CF6826EA0C06AF40374387604668A64377
:100940000C79C4F30014944034434460C6688C6846
:1009500026EA0C06AC403443C4604C68E40065D51C
:10096000364C256845F480452560246822F003054F
:1009700004F480440094324C2E19D6F808489507A8
:100980002F0F09FA07F5AC432E4DA84201D10025DF
:1009900024E02D4DA84201D101251FE02B4DA84296
:1009A00001D102251AE02A4DA84201D1032515E004
:1009B000284DA84202D1042510E037E0264DA84278
:1009C00001D105250AE0254DA84201D1062505E003
:1009D000234DA84201D1072500E00825BD4025434D
:1009E000C6F80858DBF800405D464E689C43F603A5
:1009F00000D51C432C60DEF8004075464E689C43D1
:100A0000B60300D51C432C600B4D08352C684E688E
:100A10009C43F60200D51C432C60074D0C352C6816
:100A20004E689C43B60200D51C432C60521C102A11
:100A3000FFF44EAFBDE8F88F003C0140443802405F
:100A40000030014000000240000402400008024063
:100A5000000C024000100240001402400018024046
:100A6000001C02400069084000D0012070470AB114
:100A7000816170470904FBE7014880687047000006
:100A8000500000200248816802781144816070475C
:100A9000500000200B4810B5016841F4007101605E
:100AA000016841F480610160016841F48071016076
:100AB000032000F08DF8002000F006F800F03EF86A
:100AC000002010BD003C024010B5014688B0002255
:100AD0002C2000F05DF82C2000F04CF81348002486
:100AE000016841F080010160006805A900F0800004
:100AF0000690684600F032F900F050F90C494000C9
:100B0000B0FBF1F10C480B4A491E026040F2E7329B
:100B1000C0E90324C0E9011400F077FC10B1012002
:100B200008B010BD044800F0BDFCF9E740380240B1
:100B300040420F00001C0040380400200C4882B0E6
:100B4000016841F480410160006800F48040009039
:100B50000748001F016841F08051016000680022D1
:100B600000F0805000900F21901E02B000F010B8ED
:100B700044380240002809DB00F01F0201219140A7
:100B80004009800000F1E020C0F80011704700002B
:100B9000F0B40E4B1B680C46C3F30223C3F10705E8
:100BA000042D00D90425191D072901D2002300E0D6
:100BB000DB1E012606FA05F1491E214099409E40A0
:100BC000761E16403143F0BC01F060BC0CED00E035
:100BD000064900F0070208684FF6FF03184040EA94
:100BE0000220034A10430860704700000CED00E04B
:100BF0000000FA050B4A136823F003030343136054
:100C00000948026842F004020260012907D040BF8F
:100C100020BF20BF016821F004010160704730BF90
:100C2000F8E700000070004010ED00E02DE9F0470B
:100C30000E46050065D0DFF81481D8F80000F7B241
:100C400000F00F00B04207D288F80070D8F800001A
:100C500000F00F00B04254D128683D4C810712D5F6
:100C6000400703D5206840F4E05020602878000752
:100C700003D5206840F4604020602068A96820F017
:100C8000F000084320602878C0072DD030496868FC
:100C90000839012812D0022813D0032811D009687E
:100CA000890700292DDA216821F003010143216021
:100CB000FFF7E2FE814641F2883A0EE009688903B7
:100CC000EFE709688901ECE7FFF7D6FEA0EB090121
:100CD000514502D90320BDE8F0872068696800F01B
:100CE0000C00B0EB810FEFD1D8F80010404601F0B6
:100CF0000F01B14207D90770006800F00F00B04241
:100D000001D00120E7E72878400705D52068E96889
:100D100020F4E050084320602878000706D52068BA
:100D2000296920F4604040EAC100206000F046F8E4
:100D30002168084AC1F30311515CC84006490860A4
:100D40000020FFF7C1FE0020C5E70000003C024084
:100D500008380240343D00085C0000200F22026089
:100D60000C4A136803F003034360136803F0F003B5
:100D70008360136803F4E053C36012684FF4E053D8
:100D800003EAD20202610448006800F00F00086024
:100D90007047000008380240003C02400448054902
:100DA00000680968044AC1F38221515CC840704759
:100DB0005C00002008380240443D0008154810B58A
:100DC000006810F00C02144813D01449042A0FD004
:100DD000082A0ED10F4C241F2268236802F03F021C
:100DE0005B0207D52068C0F38810A0FB010106E074
:100DF000084610BD2168C1F38811A1FB0001002342
:100E0000FFF73EFA2168C1F30141491C4900B0FBDC
:100E1000F1F010BD083802400024F40040787D0154
:100E20002DE9F84F050076D02878DFF8F8B2BE4CEF
:100E3000C00749D0DBF800105846C1F381010129F1
:100E400008D00068C0F3810002280AD1201D006884
:100E5000400206D52068800336D568680028E2D0B5
:100E600032E06868B0F5803F10D0B0F5A02F206860
:100E700010D020F480302060206820F48020206092
:100E80006868A0B1FFF7F8FD06460CE0206840F462
:100E90008030F4E740F480202060F7E7FFF7ECFDB6
:100EA000801B642873D820688003F7D50CE0FFF717
:100EB000E3FD064605E000BFFFF7DEFD801B64286A
:100EC000F0D820688003F7D42878DFF860828007A4
:100ED0004FF000093ED5DBF80010584611F00C0F1A
:100EE00009D00068C0F3810002280BD18D48001F93
:100EF0000068400206D42068800715D5E8680128FC
:100F000009D111E0E868B8B10120C8F80000FFF786
:100F1000B3FD064605E002E1FFF7AEFD801B0228A7
:100F2000C0D820688007F7D52068296920F0F8002C
:100F300040EAC10020600DE0C8F80090FFF79CFD7A
:100F4000064604E0FFF798FD801B02281FD82068A2
:100F50008007F7D42878000722D5724E7448696953
:100F60006C3671B101210160FFF786FD074604E090
:100F7000FFF782FDC01B022809D830688007F7D52B
:100F80000EE0C0F80090FFF777FD074605E083E02C
:100F9000FFF772FDC01B02287ED830688007F7D4A7
:100FA0002878400768D5DFF87CA100270AF1380AC5
:100FB000DAF80000C0000BD4DAF8001041F08051DC
:100FC000CAF80010DAF80000012700F08050009005
:100FD000584E3068C00510D4306840F480703060DE
:100FE000FFF74AFD009005E0FFF746FD0099401A23
:100FF000022851D83068C005F6D54A4EA868683630
:1010000001280FD00528306810D020F00100306092
:10101000306820F004003060A868B8B1FFF72CFDFC
:1010200000900FE0306840F00100F4E740F0040069
:101030003060F7E7FFF720FD0099411A41F2883050
:10104000814264D830688007F4D50EE0FFF714FDC4
:10105000009007E0FFF710FD0099411A41F2883037
:10106000814254D830688007F4D42FB1DAF80010E8
:1010700021F08051CAF80010A869C0B3DBF8001055
:10108000C1F3810102294AD00228484607D0C8F896
:101090006000FFF7F1FC00E039E005463AE0474622
:1010A000C8F86000FFF7E8FC064604E0FFF7E4FC40
:1010B000801B02282BD820688001F7D4D5E90701CE
:1010C0000843A96A1C4A490802EB01416A6A41EADD
:1010D0008211084395F82C1040EA01611148001F65
:1010E000016001203866FFF7C7FC054605E014E003
:1010F000FFF7C2FC401B022809D820688001F7D501
:101100000BE000BFFFF7B8FC401B022802D9032008
:10111000BDE8F88F20688001F4D40020F8E70120B2
:10112000F6E700000838024000380240000047425D
:10113000800E4742007000400000FFFF0348006837
:10114000C16841F00101C16070470000380400200F
:1011500070B5040005D00025A56294F8510010B1C7
:1011600006E0012070BD84F85050204600F030F8B1
:10117000022084F851002068016821F040010160DC
:10118000D4E901010843D4E903121143084361691A
:101190000843218B01F400710843E1690843216A87
:1011A0000843A16A084321680860A069042101EA94
:1011B0001040616A0843216848602068C16921F4D1
:1011C0000061C1616565012084F85100002070BD97
:1011D00010B586B0044614216846FFF79BF8144901
:1011E0002068884221D113480021026842F400425D
:1011F0000260006800F4004005900E481038026854
:1012000042F004020260006800F0040005904FF410
:10121000A05000900220CDE9010103200390062098
:10122000049069460448FFF745FB06B010BD000076
:10123000003C004040380240000802402DE9F84FD1
:10124000044690F8500000271D461646894601289E
:101250000DD04FF0010B84F850B0FFF70DFC804625
:1012600094F85100BA46012804D002278EE00220EB
:10127000BDE8F88FB9F1000F7DD0002E7BD00320A0
:1012800084F85100C4F854A0C4F83090A686E686CD
:10129000C4F838A0A4F83CA0A4F83EA0C4F844A028
:1012A000C4F840A0A068B0F5004F04D120680168E0
:1012B00041F48041016020680168490603D4016857
:1012C00041F040010160E068B0F5006F606803D054
:1012D00030B3012E24D040E008B1012E1CD1206B88
:1012E00021680088C86006E020688168890709D500
:1012F000216B0988C160206B801C2063E08E401E3A
:10130000E08609E0FFF7B8FBA0EB0800A84202D393
:10131000681C01D031E07DB3E08E0028E4D11FE0ED
:10132000206B21680078087306E0206881688907CF
:1013300009D5216B09780173206B401C2063E08E76
:10134000401EE08609E0FFF797FBA0EB0800A842EB
:1013500002D3681C01D010E075B1E08E0028E4D102
:1013600042462946204600F0C5FD08B120206065B0
:10137000A06820B107E008E0FFE7032706E0206847
:10138000C16880680090606D00B1012784F851B099
:1013900084F850A038466BE74FF0E0210428086934
:1013A00003D020F004000861704740F00400FAE721
:1013B00003480068C16821F00101C1607047000066
:1013C000380400207047704770B590F83C20012A1F
:1013D00019D0012400F83C4F0222427050F83C3CE6
:1013E0005A689D6822F070060A684968324325F001
:1013F000800529435A6050F83C2C916044700021CC
:101400000170084670BD022070BD10B5040003D005
:1014100094F83D0010B107E0012010BD002084F8D1
:101420003C00204600F00CF8022084F83D00211D0D
:10143000206800F045FF012084F83D00002010BD29
:1014400008B5154A0168154891420ED1016841F06E
:10145000200101600068002200F0200000900221BD
:101460003720FFF795FB372010E00D4A914211D14C
:10147000016841F4807101600068002200F480700E
:10148000009002212D20FFF783FB2D20BDE80840AE
:10149000FFF770BB08BD0000001400404038024058
:1014A000002000400168CA6842F00102CA6000687A
:1014B000816801F00701062903D0016841F00101AC
:1014C0000160002070470168CA6822F00102CA600A
:1014D0000068016A41F21112114207D1016A9210AB
:1014E000114203D1016821F0010101600020704721
:1014F0002DE9F041007F022834D1244C244D0026F0
:1015000020784FF65F7778B32248FFF7DCFF214859
:101510000068466266602868016A3940016228688E
:10152000016A01620421284600F008FA61689FED13
:101530001A1A08446178C1EB0141084400EE100A10
:1015400060606670B8EEC00AC0EE010A94ED030A4E
:101550009FED121A00EE810A84ED030AA068401C78
:10156000A0602670BDE8F081FFE728684662094860
:10157000FFF798FF2868016A394001622868016A0C
:1015800041F02001016201202070EBE740000020C3
:1015900078030020B803002000409C460000AA43C6
:1015A0002DE9F041044690F83C000D4601283DD05D
:1015B000012684F83C60022084F83D00AAB3042A86
:1015C00046D02068082A55D0D5E90027E968036A83
:1015D00023F480530362D0F81CC0036A2CF4407CCF
:1015E0004CEA07274FF6FF7C27F470470CEA0131DD
:1015F00039434FF4204723F4204307EA02321A43C9
:10160000C16102622068C16921F44061C161206842
:10161000C169AA6841EA0221C0F81C1084F83D6043
:10162000002084F83C00BDE8F08101E00220FAE7E8
:10163000D5E90012EB68206800F0B4FE20688169EB
:1016400021F00C01816120688169AA6811430FE0D3
:10165000D5E90012EB68206800F0E4FE206881699B
:1016600021F44061816120688169AA6841EA022110
:101670008161D3E7D5E9002C2F7B016A21F48071C9
:101680000162C169036A21F0030141EA0C0121F002
:10169000F00C39074FF420674CEA116123F4206302
:1016A00007EA02221A43C16102622068C16921F07F
:1016B0000C01C1612068C169AA681143ACE710B58B
:1016C000040003D094F83D0010B107E0012010BDE4
:1016D000002084F83C00204600F00CF8022084F83A
:1016E0003D00211D206800F0EBFD012084F83D0045
:1016F000002010BD10B586B0044614216846FEF7E0
:1017000009FE2068B0F1804F27D1154800210268FA
:1017100042F001020260006800F0010005901048EC
:101720001038026842F002020260006800F0020015
:101730000590082000900220CDE901010120CDE9AB
:10174000031069460748FFF7B5F8002202211C2064
:10175000FFF71EFA1C20FFF70DFA06B010BD0000BF
:10176000403802400004024010B50268044631B11E
:10177000042908D008291AD00C2908D11BE0D06808
:1017800040F0020002E0D06840F00400D060012286
:10179000206800F0F9FD2068816801F00701062942
:1017A00003D0016841F001010160002010BDD06844
:1017B00040F00800EAE7D06840F01000E6E770B5B6
:1017C0000446006801694FF00005C943890715D434
:1017D000C168C943890711D4E91E0161012020773E
:1017E000206880698007204602D0FFF781FE04E070
:1017F00000F098F8204600F096F8257720680169F7
:10180000C943490717D4C168C943490713D46FF0C6
:1018100004010161022020772068806910F4407F74
:10182000204602D0FFF764FE04E000F07BF820467B
:1018300000F079F8257720680169C943090716D4B3
:10184000C168C943090712D46FF00801016104207F
:1018500020772068C0698007204602D0FFF748FE45
:1018600004E000F05FF8204600F05DF8257720687E
:101870000169C943C90617D4C168C943C90613D44D
:101880006FF010010161082020772068C06910F412
:10189000407F204602D0FFF72BFE04E000F042F824
:1018A000204600F040F8257720680169C943C90740
:1018B00008D1C168C943C90704D1891E0161204606
:1018C00000F032F820680169C943090609D4C168EB
:1018D000C943090605D46FF0800101612046FFF776
:1018E00071FD20680169C943490609D4C168C9432B
:1018F000490605D46FF040010161204600F033F83D
:1019000020680169C94389060BD4C168C9438906A7
:1019100007D46FF0200101612046BDE87040FFF759
:1019200052BD70BD7047704700680349884201D1BD
:10193000FFF7A8B870470000001C004002460020D6
:1019400041B1042909D008290AD00C2901D1106815
:10195000006C70471068406B70471068806B704770
:101960001068C06B70477047FEE7000010B596B076
:101970001C2211496846FEF7B4FC0021684601F0BC
:101980005BFB0E4C0C491C22A0601C3107A8FEF723
:10199000A8FC002107A801F04FFB0749E0601C22CA
:1019A00038310EA8FEF79DFC00210EA801F044FB83
:1019B000206116B010BD0000E03C00082C000020A3
:1019C0002DE9F04786B014216846FEF7A3FC57487E
:1019D0000024016841F010010160016801F010016C
:1019E0000591016841F004010160016801F0040102
:1019F0000591016841F080010160016801F08001FA
:101A00000591016841F001010160016801F00101E7
:101A10000591016841F002010160016801F00201D5
:101A20000591016841F0080101600068DFF800815C
:101A300000F008000590002202214046FFF717F849
:101A4000DFF8F09000226A214846FFF710F84FF6C1
:101A5000FE700325CDE90005DFF8DCA0694602949D
:101A60005046FEF727FF4EF6FF30CDE900056946E8
:101A700002943248FEF71EFF0095CDE901546946F5
:101A80002F48FEF717FF49F6FD10CDE9000569461E
:101A900002944046FEF70EFF022601270096CDE98C
:101AA0000174694640460394FEF704FF4FF6E77061
:101AB000CDE90005DFF88C80694602944046FEF7C8
:101AC000F9FE4FF61570CDE90005694602944846C7
:101AD000FEF7F0FE6A200090CDE9017469464846A1
:101AE0000394FEF7E7FE80208DE8510069464846E2
:101AF000FEF7E0FE102000901348CDE9010669468C
:101B00004046FEF7D7FE0097CDE9014669465046AC
:101B1000FEF7D0FE002211460A20FFF739F80A200E
:101B2000FFF728F806B0BDE8F08700003038024023
:101B300000000240000C0240001002400008024079
:101B4000001C02400004024000001110104810B5B3
:101B50000E4901604FF482714160002102228160D0
:101B6000C0E9031201224261520282610822C0E9E7
:101B70000721416281620A21C162FFF7E9FA002868
:101B800003D0BDE81040FEF773BE10BD003C00401E
:101B9000200300200A4810B50849016000215322A3
:101BA0004160C0E9021201618161FFF72EFC00284B
:101BB00003D0BDE81040FEF75BBE10BD0020004022
:101BC000F803002010B586B000241848059404944A
:101BD0000094019402944FF080410394016042F21A
:101BE000CF01C0E901144FF6FF71C0E9031484610D
:101BF000FFF765FD08B1FEF73BFE049404A90B480E
:101C00000594FFF7E1FB08B1FEF732FE0120CDE9B4
:101C1000004002940422694604480394FFF7C0FC84
:101C2000002801D0FEF724FE06B010BD7803002086
:101C30001CB500240F4800940D490194016042F244
:101C4000CF01C0E901144FF6FF718461C160FFF755
:101C5000DCFB08B1FEF70CFE0094694605480194D0
:101C6000FFF7B2FB002801D0FEF702FE1CBD00000A
:101C700000140040B8030020FEE7704770B5002450
:101C800004F1B000C0B2002100F00EF900210846B6
:101C900000F00AF90021102000F006F900250121CA
:101CA000002000F001F96D1CEDB2802DF7D3641C0B
:101CB000E4B2082CE4D370BD10B5494C01220221D6
:101CC0002046FEF7D4FE7820FEF7D4FD0022022144
:101CD0002046FEF7CCFE7820FEF7CCFD0122022143
:101CE0002046FEF7C4FE0021AE2000F0DDF8002102
:101CF000022000F0D9F80021102000F0D5F80021D2
:101D0000402000F0D1F80021812000F0CDF8002122
:101D1000FF2000F0C9F80021A12000F0C5F8002143
:101D2000C82000F0C1F80021A62000F0BDF8002175
:101D3000A82000F0B9F800213F2000F0B5F80021FC
:101D4000D32000F0B1F80021084600F0ADF80021E2
:101D5000D52000F0A9F80021802000F0A5F800218E
:101D6000D92000F0A1F80021F12000F09DF8002119
:101D7000DA2000F099F80021122000F095F80021F7
:101D8000DB2000F091F80021402000F08DF80021C8
:101D9000202000F089F80021022000F085F80021C1
:101DA0008D2000F081F80021142000F07DF8002142
:101DB000A42000F079F80021A62000F075F8002199
:101DC000AF2000F071F80021AF2000F06DF8FFF7B0
:101DD00055FF0021BDE81040084600F003B80000A0
:101DE000000C024010B50446B031C8B2002100F02A
:101DF0005BF8102040EA1410002100F055F804F0C0
:101E00000F00BDE8104040F00100002100F04CB888
:101E10002DE9F041203A00240D468046D7B27F28B4
:101E200003D900208D1C8046EDB22946FFF7DAFF6A
:101E30000F4E00BF04EB07100121305C00F034F8B6
:101E4000641CE4B2082CF5D36D1CE9B24046FFF7E0
:101E5000C9FF002404EB071030440121007A00F090
:101E600023F8641CE4B2082CF4D3BDE8F081000030
:101E70004C3D00082DE9F04117460E46044600256A
:101E80000CE031462046FFF7C3FF0834E4B2782C5B
:101E900002D90024B61CF6B26D1CEDB27A5D002AA0
:101EA000EFD1BDE8F081000013B5104C09B101225B
:101EB00000E0002208212046FEF7D9FD0022202163
:101EC0002046FEF7D4FD4FF47A7301226946084894
:101ED000FFF7B4F9012220212046FEF7C8FD0122B8
:101EE00008212046FEF7C3FD1CBD0000000C024087
:101EF0002003002038B504461248134B0068B0FB9D
:101F0000F3F04FF47A73584300906068B0F5827F25
:101F10000DD10B46009200228021204600F016F8D9
:101F200070B1606D40F020006065032038BD0098FE
:101F300030B1401E009020688068C0430006F6D58E
:101F4000002038BD5C00002000366E012DE9F04114
:101F50001D4617460E460446DDF8188008E0681C4A
:101F600006D0FEF789FDA0EB0800A8420BD255B1C0
:101F70002068806836EA000030D00020B842EED1F8
:101F80000020BDE8F0812068416821F0E001416057
:101F90006068B0F5827F0BD1A068B0F5004F02D029
:101FA000B0F5806F04D12068016821F04001016024
:101FB000A06AB0F5005F09D12068016821F40051E2
:101FC00001602068016841F400510160012084F83B
:101FD0005100002084F850000320D2E70120CDE713
:101FE000194FDFF868801A4D1A4E30680028FCD06F
:101FF0003868404510DA012202212846FEF737FDF5
:10200000FA2000F0D1FE002202212846FEF72FFD23
:10201000FA2000F0C9FEE8E7002401220221284648
:10202000FEF725FDFA2000F0BFFE0022022128461F
:10203000FEF71DFDFA2000F0B7FE641C642CECDBFB
:10204000306800F0EDFFD0E72C000020CDCCCC3D77
:1020500000000240240000202DED028B4FF07E5A3C
:102060001D4E1E4FDFF87890DFF87880DFED1E8A76
:102070009FED1E8A1E4C00254FF4FA7B96ED000A58
:10208000386801F08DFA396896ED001A09EB810085
:10209000D0ED000A81EE200A10EE100A84ED000A4D
:1020A000504507DDC8F800506068401C6060282873
:1020B00009D00DE0F0EE480A40EE280ABDEEE00A35
:1020C00088ED000A03E001F0D3FA01F039FC656005
:1020D000584600F0A5FFD1E72800002000000020AE
:1020E0001400002024000020299C0A44A8C659425C
:1020F0002C0000202DED028B4FF00008184F194ED8
:10210000194D1A4CDFF86890DFED1A8AB1EE048A97
:10211000387898B9012240213046FEF7A8FC0A2001
:1021200000F042FE002240213046FEF7A0FC642071
:1021300000F03AFE04211048FFF716FB2868052836
:1021400009D194ED000AC0EE080AC9ED000AC5F8ED
:102150000080C4ED008A0A2000F062FFD8E700008A
:1021600040000020000C0240480000204C000020ED
:1021700028000020000000007803002010B5202077
:1021800080F31188BFF34F8FBFF36F8F01F0E2FC34
:1021900018B104494FF080500860002080F3118886
:1021A00010BD000004ED00E030B593B0302168466A
:1021B000FEF7B0F814210CA8FEF7ACF8194800257A
:1021C000016841F080510160006800F0805011907A
:1021D0001548016841F4804101600068022400F460
:1021E00080401190012003901020049000940694E8
:1021F0000820CDE90750A820CDE9090404200B9060
:102200006846FEF70DFE0CA90F2081E831004FF45F
:10221000A0500F90E002109005210CA8FEF706FDDB
:1022200013B030BD403802400070004010480168D3
:1022300041F4700101600F48016841F00101016043
:102240000C4A00210832116002680B4B1A400260F0
:10225000031D0A4A1A60026822F4802202600548BF
:102260000C30016002495806803908607047000050
:1022700088ED00E000380240FFFFF6FE1030002439
:102280000148FFF79CBA00007803002010B504480D
:10229000FFF795FA03484178491C417010BD0000D2
:1022A000B8030020400000200148FFF788BA000072
:1022B000F80300200148FFF782BA0000380400202C
:1022C000F0B50268254C264D264E274F274B4FF080
:1022D000804CA04209D0604507D0A84205D0B0424A
:1022E00003D0B84201D0984204D122F0700E4A685F
:1022F00042EA0E02A0421BD0604519D0A84217D076
:10230000B04215D0B84213D0984211D0184DA8420F
:102310000ED0184DA8420BD0174DA84208D0174D2B
:10232000A84205D0164DA84202D0164DA84203D1AE
:1023300022F44075CA682A434D6922F080022A437C
:1023400002608A68C2620A688262A04201D0984232
:1023500001D10969016301214161F0BD0000014023
:102360000004004000080040000C00400004014050
:102370000040014000440140004801400018004076
:10238000001C00400020004010B501F01F03012197
:10239000046A99408C430462016A9A4011430162C5
:1023A00010BD000070B5046A24F001040462846961
:1023B000056A154EB04214D0B0F1804F11D0134EC3
:1023C000B0420ED0124EB0420BD0124EB04208D0E6
:1023D000114EB04205D0114EB04202D0104EB04264
:1023E00003D124F00304144301E044F001041A076C
:1023F00024F0F00444EA126225F00A0301F00A0115
:1024000019438261016270BD000001400004004078
:1024100000080040000C0040000401400040014062
:102420000018004030B5046A24F010040462846986
:10243000056A24F4407444EA022222F470444FF600
:10244000FF7202EA03322243A02425F0A00304EA2B
:10245000011119438261016230BDFEE70FB41CB562
:102460000246002007AC00290BD0491ECDE900210F
:10247000054B6A462146069800F0EAF8009A0021CA
:1024800011701CBC5DF814FB7F2D00080907090EB4
:10249000002804DB00F1E02080F80014704700F011
:1024A0000F0000F1E02080F8141D704702E008C81A
:1024B000121F08C1002AFAD170477047002001E0BE
:1024C00001C1121F002AFBD1704700002DE9FF5FF8
:1024D00082B00021DDE90430020DDDF840B0034395
:1024E00018D044F61050A2F2FF324243151411984E
:1024F00001281FD0A5EB0B00401C5FEA000A4FF03B
:1025000000064E4FDFF83891B046504615D5CAF157
:10251000000413E0119801244AA3012801D16FEAB5
:102520000B010298119AC0E90031C0E9024206B0DD
:10253000BDE8F09FCBF10000DFE704460021404AF0
:10254000491842EB0450CDE9001012E0E00707D033
:1025500032463B4640464946FEF75BF88046894690
:1025600032463B4610461946FEF753F806460F46DC
:102570006410002CEAD1DDE90401DDE90023BAF1A1
:10258000000F06DAFEF745F842464B46FEF741F8E3
:1025900005E0FEF7B0F842464B46FEF7ACF80446BD
:1025A0000E460022284BFEF72DF903D84FF0FF30DE
:1025B000014607E00022254B20463146FDF7CBFEC1
:1025C000FEF708F9102409E0002C0ADB0A22002398
:1025D000FDF756FE039B30321A55641E50EA010285
:1025E000F2D1641C039AC4F111031444119A012A14
:1025F00003D0012208430DD10AE0084304D0002093
:102600004FF0110B119072E7A3EB0B056D1E0DE05F
:102610005B4504DD4FF0000205F1010504E003DA3B
:102620004FF00002A5F10105002AECD002981199A3
:10263000C0E90231C0E9004579E70000000014401C
:102640000000F03F300000000000F0430000E03FD9
:102650002DE9FF4F95B09B468946064600250FE2BF
:10266000252877D100242746F84A0121059400E067
:10267000044316F8013F203B01FA03F01042F7D162
:1026800030782A2811D06FF02F033078A0F1300273
:10269000092A16D8059A44F0020402EB820203EBE1
:1026A00042021044761C0590EFE759F8042B05927E
:1026B000002A03DA504244F40054059044F0020426
:1026C000761C30782E2816D116F8010F44F0040439
:1026D0002A280DD06FF02F023078A0F13003092B9B
:1026E00009D807EB870302EB4303C718761CF3E70F
:1026F00059F8047B761C30786C280FD006DC4C2807
:1027000017D068280DD06A2814D104E0742810D09E
:102710007A280FD10DE044F400140AE044F4801448
:1027200001E044F440147278824202D104F580142E
:10273000761C761C307866280BD013DC582877D0AE
:1027400009DC002875D04528F6D04628F4D0472863
:102750001AD19DE118E0632835D0642879D0652826
:1027600012D195E1702873D008DC6728F1D0692870
:102770006FD06E280DD06F2806D1B5E073282CD00D
:10278000752875D0782874D05A46179990476D1CD3
:1027900075E1C4F30250022809D003280DD0D9F8FE
:1027A000001004280DD00D6009F1040967E1D9F883
:1027B0000010EA17C1E90052F6E7D9F800100D80C1
:1027C000F2E70D70F0E719F8041B8DF800100020F7
:1027D0008DF80100EA46012003E059F804AB4FF000
:1027E000FF3061074FF0000102D40DE008F1010154
:1027F0008846B9420FDA8045F8DB1AF8081000293C
:10280000F4D108E008F1010188468142FADB1AF8A8
:1028100008100029F6D105985B46A0EB0807214671
:102820003846179A00F094FA284400EB080507E0B0
:102830004DE029E10DE01AF8010B5A46179990472F
:10284000B8F10108F7D25B4621463846179A13E1E2
:1028500042E00A220092C4F302524FF0000A022A18
:1028600008D059F804CB032A4FEAEC710AD00DE0E6
:1028700029E02AE009F1070121F00702F2E802C18C
:10288000914609E00FFA8CFC4FEAEC71042A03D15F
:102890004FFA8CFC4FEAEC71002907DA0A46002156
:1028A000DCF1000C61EB02012D2202E0220504D5CF
:1028B0002B228DF80420012203E0E20701D0202220
:1028C000F7E7904659E00A2102E010220DE01021BE
:1028D0004FF0000A00910BE010224FF0000A44F084
:1028E00004040827009203E008224FF0000A009237
:1028F000C4F30252022A05D059F804CB0021032A5E
:1029000008D009E009F1070121F00702F2E802C14D
:10291000914605E01FFA8CFC042A01D10CF0FF0C53
:102920004FF00008220728D5702806D0009B83F0BE
:10293000100353EA0A0305D00EE040228DF804206C
:10294000012208E05CEA010206D030228DF8042062
:102950008DF8050002229046009B83F0080353EA9D
:102960000A030AD15CEA010201D1620705D53022CF
:102970008DF804204FF001087F1E582804D034A0A1
:1029800003900EA802900DE036A0F9E7534660468A
:10299000009AFDF775FC84460398825C0298401EFD
:1029A000029002705CEA0100F0D1029806A9081AB0
:1029B00000F1200A600702D524F4803400E00127EA
:1029C000574502DDA7EB0A0000E0002000EB0A01FA
:1029D000009005984144401A0590E00306D45B46F8
:1029E0002146179A059800F0B3F90544002706E040
:1029F00001A85A46C05D179990476D1C7F1C47453A
:102A0000F6DBE0030CD55B462146179A059800F0EB
:102A10009FF9054404E030205A46179990476D1CF1
:102A20000099481E00900029F5DC08E00298029900
:102A30005A460078491C0291179990476D1CBAF1CB
:102A40000001AAF1010AF1DC65E10000092801009A
:102A50003031323334353637383961626364656614
:102A600000000000303132333435363738394142D6
:102A7000434445460000000000F058F90544761C28
:102A8000307800287FF4ECAD19B02846BDE8F08F0F
:102A9000620700D4062709F1070222F0070CFCE8C0
:102AA0000223E14603F000485FEA080C02D00FF26F
:102AB000702C0DE05FEA045C02D50FF2682C07E091
:102AC0005FEAC47C02D00FF2602C01E0AFF2700C20
:102AD0004FF0FF3823F00043CDF850C065280CD0EC
:102AE00006DC452809D046281DD047283DD13DE0C9
:102AF000662818D067287ED138E00021112F01DB2D
:102B0000112000E0781CCDE9000106A90EA8FFF70E
:102B1000DDFCDDE90F010E9A03910021009207F11F
:102B2000010A04914DE04FF000400097CDE90110FB
:102B300006A90EA8FFF7CAFCDDE90F0203920E9B5F
:102B400011990022DDF80CA00093049211B9791CB0
:102B500000EB010AB7EB0A0004D4C0F1FF3007F123
:102B6000010A0490AAEB0700019044E0012F00DA6B
:102B700001270021112F01DD112000E03846CDE9A9
:102B8000000106A90EA8FFF7A1FCDDE90F010E9ACE
:102B90000391002104910092BA4621070CD40399B5
:102BA000514500DA8A46BAF1010F05DD009AAAF113
:102BB0000101515C302908D0B84202DA10F1040F4B
:102BC00006DA0121CDE9011015E0AAF10101E9E7DA
:102BD000002805DC049901440491AAEB000102E0FD
:102BE000411C514500DD8A460499401A401C019061
:102BF0004FF000400290200704D40198504501DBBB
:102C0000CDF8048000208DF84F0002980DF14F0799
:102C1000B0F1004F25D02B200E9002984FF0020803
:102C200000280CDA404202902D200E9007E00A2185
:102C30000298FDF74AFC3031029007F8011DB8F107
:102C40000001A8F10108F2DC02980028EFD1791EFA
:102C50000E980870307800F0200040F0450007F82A
:102C6000020D12A8C01B00F107081498007800B1EB
:102C7000012000EB0A01019801EBE0710598414445
:102C8000401A401E0590E00306D45B462146179A81
:102C9000059800F05DF805441498007818B15A467C
:102CA000179990476D1CE00324D55B462146179A7F
:102CB000059800F04DF805441CE00498002807DB57
:102CC000DDE90301884203DD0098405C179901E0CB
:102CD000179930205A469047049805F10105401C89
:102CE00004900198401E019004D12E205A46179955
:102CF00090476D1CBAF10001AAF1010ADDDC05E084
:102D000017F8010B5A46179990476D1CB8F100014E
:102D1000A8F10108F4DC5B462146179A0598ABE65A
:102D20002D0000002B000000200000002DE9F041E4
:102D3000044600251E461746880404D405E039469B
:102D40002020B0476D1C641EF9D52846BDE8F081EF
:102D50002DE9F041044600251E469046C80301D5E2
:102D6000302700E02027880404D505E04146384696
:102D7000B0476D1C641EF9D52846BDE8F0814A684D
:102D8000002A06D00A68531C0B6010704868401E69
:102D90004860704710B504460420FEF7FDFA01486C
:102DA000046010BD6000002070B54FF0E0240022E8
:102DB00065690949A36909684843A1699942FCD03A
:102DC00002D2A3EB010302E0A5EB010633441A444F
:102DD0000B468242F1D370BD60000020F0B5FDEEDD
:102DE000C00A2DED028B054610EE904A83B00F46C7
:102DF00000EE904A2046F8EEE00A30EE608A00F0DD
:102E00006DF82844801D00F0D5F8064618EE100A2B
:102E1000FDF748FBCDE900010EA2E91C3046FFF7A3
:102E20001DFB2E213046FDF78CFA0546204600F0AA
:102E300055F8014608A2204600F038F82946FDF76B
:102E400074FA03B03946BDEC028BBDE8F040FDF7E3
:102E50006CBA0000256600000000000010B50028D4
:102E600021D0114B0022001F196803E0814203D8D2
:102E70000A4649680029F9D152B11368841A9C4264
:102E800004D1006818441060104602E0506000E071
:102E9000186039B102680B1A934203D10B681A44C7
:102EA00002604968416010BDC40000202DE9F04176
:102EB000064617460C46481D00F07CF8054633468A
:102EC00005A2611CFFF7CAFA39462846FDF72DFA1C
:102ED0002846BDE8F08100002564000000210A2298
:102EE000401C02E090FBF2F0491C0028FAD1084691
:102EF0007047000008B5FDF7CDFDFFF755F91B48F9
:102F0000016841F080510160006800F0805000903D
:102F1000FEF756FDFEF71AFEFEF754FEFEF788FE9A
:102F2000FEF738FEA820FFF735FFFEF7C5FEFEF7D7
:102F3000A5FE00F0CFFA0E490EA208600021084657
:102F4000FEF798FF0FA202210020FEF793FF10A2C8
:102F500004210020FEF78EFF10A206210020FEF7BC
:102F600089FFFEF703FD00F062F8FEE740380240FB
:102F700000000020416C61726D2053797374656D9F
:102F800000000000566F6C3A204E2F4100000000F8
:102F90004469733A204E2F41000000005374613A97
:102FA000204E2F410000000001460020842900D05F
:102FB000C81C7047F0B50B30154D20F007010024F8
:102FC000144A0FE003688B420BD38B4205D95E1A7B
:102FD00043184768C3E9006700E04368136002C014
:102FE00004E0021D10680028ECD12046002802D120
:102FF000286808B10020F0BD064A07481060074A5B
:10300000121A22F00702C0E9002401202860D7E745
:10301000C8000020C40000206C410020686100202E
:1030200010B500B9012000F0F9FB002010BD10B56B
:1030300000F01AFC002010BD7FB50D460446416922
:10304000B0F9080081B1A16971B1FFF7ADFFD4E912
:1030500005128DE80700D4E900102B46226900F024
:103060004EFD039004B070BDFFF79EFF03A9CDE9AC
:103070000001208A2B4682B2D4E9001000F012FD34
:10308000012801D00020EDE70398EBE72DE9F0419E
:10309000184C0F46054666692068001D00F0FAFAD4
:1030A00038B9206890F82C1001208840A16981432C
:1030B000A161681C07D137B12168BDE8F0410E4815
:1030C000091D00F02BBB20683544B54245602168DE
:1030D00005D2A068BDE8F041091D00F007BB60689B
:1030E000091D00F003FB206B854200D22563BDE87B
:1030F000F081000064000020540500202DE9F0411B
:10310000054600F017FB2E4C2069401C206120680A
:103110002C4F10B1E06940B32DE0256020690128F3
:1031200029D1002606EB860007EB800000F0D0FADC
:10313000761C072EF6D323488C3000F0C9FA2148BC
:10314000A03000F0C5FA1F48B43000F0C1FA1D48A5
:10315000C83000F0BDFA1B48DC3000F0B9FA19485D
:103160008C3060601430A06005E02068E96AC06AB5
:10317000884200D82560E06A401CE062E96A0120CC
:10318000A26988401043A06101EB810007EB800039
:10319000291D00F0C3FA00F0EDFAE06900280CD018
:1031A0002068E96AC06A884207D207494FF0805018
:1031B0000860BFF34F8FBFF36F8FBDE8F081000051
:1031C000640000207804002004ED00E010B50446FF
:1031D00090F8510058B101280CD002280FD02020BF
:1031E00080F31188BFF34F8FBFF36F8FFEE7206B23
:1031F00000F0D4FA2046BDE8104000F0CFBA10BD70
:1032000010484FF47051420706D0C01D0D4920F000
:103210000700411AC1F570510B4A00230144C2E96D
:1032200000030839103A21F0070111604B600B6070
:103230000B1AC0E9001393604FF000405360D06058
:103240007047000068050020B0000020144E154CA7
:10325000A6F1C8074FF08058DFF84C9012E000BF8D
:1032600000F068FAF068C568281D00F013FA2069BC
:10327000401E2061E068401EE06000F07BFA2846B6
:10328000FFF7A4FFE0680028EAD138680128F9D9DF
:10329000C9F80080BFF34F8FBFF36F8FF2E70000D4
:1032A000400500206400002004ED00E02DE9F04717
:1032B0009A46DDE9098481466FF00303206B03EB36
:1032C00082021044089D20F00706700707D02020D6
:1032D00080F31188BFF34F8FBFF36F8FFEE7231882
:1032E0000A5C83F834200A5C12B1401C1028F6D323
:1032F000002784F84370072D00D30625E562C4E952
:103300001157201D00F0EFF904F1180000F0EBF95F
:103310002461C5F107006462A061E76484F850701D
:1033200052464946304600F0BFF82060B8F1000F21
:1033300001D0C8F80040BDE8F087000030B5114961
:1033400000E011460A688242FBD34B685C18844255
:1033500003D1406818444860084643681C189442EA
:1033600009D1084C103C2468A24209D052681A4482
:1033700042600A6812680260814200D0086030BD75
:103380000460F9E7B000002006484168096829B1E7
:103390004168C968C9684968016370474FF0FF31E7
:1033A000FAE700006400002008484068401C4FF025
:1033B000200080F3118804D0BFF34F8FBFF36F8FCD
:1033C000FEE7BFF34F8FBFF36F8FFEE7B80000201B
:1033D0002DE9F0410546002700F07CFA314E3068B7
:1033E00008B9FFF70DFFF06805424BD1C5B30835AA
:1033F00068070ED005F00700C0F108000544680713
:1034000007D0202080F31188BFF34F8FBFF36F8F59
:10341000FEE72DB37068854234D82248103001464B
:103420000C6801E020460C466168A94202D221687E
:103430000029F7D131688C4224D0076821680160E7
:1034400060680837411B10290FD96019420708D05E
:10345000202080F31188BFF34F8FBFF36F8FFEE7FB
:1034600010E041606560FFF769FF61687068401AAD
:103470007060B268904200D2B060F06801430020F2
:10348000C4E9000100F0CAFB780707D0202080F3D0
:103490001188BFF34F8FBFF36F8FFEE73846BDE84B
:1034A000F0810000A000002010B5031F4FF08074D1
:1034B0001C601B1F21F001011960191F044B0B60D8
:1034C00014390A60091F6FF0020244380A6010BD07
:1034D000A93300082DE9F041002423A2214620460B
:1034E000FEF7C8FC23A202210020FEF7C3FC254EF4
:1034F000254DDFF898801EE080213046FDF7B2FAB6
:10350000012800D1641CE01704EB907020F0030048
:10351000201A1FA255F820000321FFF7C7FC074619
:10352000024604210020FEF7A5FC3846FFF796FC72
:10353000C820FDF79FF901214046FDF793FA0028C6
:10354000DAD0FEF79BFB002112A20846FEF792FCA0
:103550004FF47A70FDF78EF9E01704EB907020F0CD
:103560000300201ABDE8F08153797374656D20491A
:103570006E69740053657420566F6C204C657665D7
:103580006C3A0000000C02400400002000100240D1
:103590006B56000053756363657373210000000070
:1035A00070B523492DED028BB0EE408A51F82050C2
:1035B000204901EB800020A1D0ED008A0120FFF717
:1035C0000DFC0446024604212820FEF753FC204649
:1035D000FFF744FC1AA203212846FFF767FC0446C4
:1035E000024602212820FEF745FC2046FFF736FC64
:1035F000C8EE280A10EE900AB0F17E5F01DB12A23D
:103600000EE010EE900A1249884201DB11A207E099
:1036100010EE900A1149884201DB11A200E012A2CB
:10362000BDEC028B0621BDE870402820FEF722BCCD
:1036300004000020140000206D2020200000000065
:103640006B5620202000000053616665202020007A
:103650009A99193F5269736B20202000CDCC4C3EC3
:1036600044616E676572200048617A61726420006F
:1036700010B5FEF703FBFDF79BFE202080F31188B9
:10368000BFF34F8FBFF36F8F0121BDE810400020C3
:10369000FDF7B0BAD0E9013201699A60D0E901239F
:1036A0005A604A68824201D182684A6000220261FF
:1036B0000868401E0860086870470000034B0360FC
:1036C00003F154000860802010607047CC00002097
:1036D00000F108014FF0FF32C0E90112C160016141
:1036E00000210160704700210161704730B50B680F
:1036F0005A1C02D000F1080202E0026904E02246EE
:10370000546825689D42FAD953684B6099608A6075
:10371000516008610168491C016030BD42684A601F
:1037200093688B6093685960916008610168491CD7
:1037300001607047202080F31188BFF34F8FBFF3E3
:103740006F8F0A494868401C486001280CD108481E
:10375000006810F0FF0F07D0202080F31188BFF31E
:103760004F8FBFF36F8FFEE770470000B800002057
:1037700004ED00E00849486828B1401E486001D1C6
:1037800080F311887047202080F31188BFF34F8F9A
:10379000BFF36F8FFEE70000B800002070B500286F
:1037A00027D0144DA0F108046168E868014207D1F0
:1037B000202080F31188BFF34F8FBFF36F8FFEE798
:1037C00022683AB1202080F31188BFF34F8FBFF3F6
:1037D0006F8FFEE78143616000F07CF86068696884
:1037E000084468602046FFF7A9FDBDE8704000F07E
:1037F00015BA70BDA00000204FF0E020002101614B
:10380000816105494FF47A720968B1FBF2F1491EF2
:1038100041610721016170475C00002010B5020082
:1038200014D00F48806B38B1202080F31188BFF38B
:103830004F8FBFF36F8FFEE700F04CF8002110466A
:10384000FFF724FC00F0EAF9002807D105494FF002
:1038500080500860BFF34F8FBFF36F8F10BD000023
:103860006400002004ED00E010B586B0002403944D
:1038700005AA04A903A80494FFF720FFDDE90301CA
:103880000094CDE9011000230EA11048059A00F024
:1038900036F90F490028486311D0202080F31188A1
:1038A000BFF34F8FBFF36F8F4FF0FF3008630120DE
:1038B000C8614C6106B0BDE8104000F079B806B0B0
:1038C00010BD000049444C45000000004D32000886
:1038D000640000200248816B491C8163704700002E
:1038E000640000201448816B11B1012141627047CE
:1038F000002141628169B1FA81F1C1F11F0101EB3F
:1039000081020E4951F822306BB101EB820101F1C5
:1039100008034A6852684A609A4201D152684A6074
:10392000D16801607047202080F31188BFF34F8F6A
:10393000BFF36F8FFEE700006400002078040020D2
:1039400010B5FDF7FBFBFEF72FFC002080F311887C
:103950000AA20146FEF78EFA0CA202210020FEF711
:1039600089FA0DA204210020FEF784FA0621BDE8A1
:1039700010400CA20020FEF77DBA0000416C61727D
:103980006D2053797374656D00000000566F6C3ABA
:10399000204E2F41000000004469733A204E2F4111
:1039A000000000005374613A204E2F4100000000D7
:1039B0001CB537480168374A914207D1202080F36F
:1039C0001188BFF34F8FBFF36F8FFEE70068314957
:1039D000491E884207D1202080F31188BFF34F8F02
:1039E000BFF36F8FFEE72C4908780190FF20087025
:1039F00008788DF800009DF800009DF8002000F088
:103A0000F000904207D0202080F31188BFF34F8F41
:103A1000BFF36F8FFEE79DF80000204B00F0200001
:103A200018700720986005E09DF8002052008DF87E
:103A30000020401E9DF800201206F5D4986003284F
:103A400007D0202080F31188BFF34F8FBFF36F8F13
:103A5000FEE74FF440709860019808700C482030E1
:103A6000016841F470010160016841F0704101603A
:103A7000FFF7C2FE00205860FCF7B4FB084801685D
:103A800041F040410160FCF799FB00201CBD0000A3
:103A900000ED00E071C20F4100E400E0B80000203A
:103AA00034EF00E02DE9FF5F8346DDE90E8799469C
:103AB00016468A469000FFF78BFC05001CD0542068
:103AC000FFF786FC040014D00020256384F8510021
:103AD000CDE90240CDE900874B4632465146584673
:103AE000FFF7E4FB2046FFF709FB012004B0BDE827
:103AF000F09F2846FFF752FE4FF0FF30F6E7F0B593
:103B000085B0DDE90B640A9DA6B1DCB154270097AE
:103B10002663022684F85160002604AFCDE90246F0
:103B2000CDE90057FFF7C2FB2046FFF7E7FA0498FC
:103B300005B0F0BD202080F31188BFF34F8FBFF395
:103B40006F8FFEE7202080F31188BFF34F8FBFF304
:103B50006F8FFEE72DE9F0412E4C0027A06B40B19E
:103B6000206A401C2062606A00B101273846BDE827
:103B7000F0816669761C666113D16068006838B1AF
:103B8000202080F31188BFF34F8FBFF36F8FFEE7C4
:103B90006068A1686160A060A06A401CA062FFF735
:103BA000F3FB206BDFF87080864209D36068006801
:103BB00080B16068C068C568686886420DD22063BD
:103BC0002068C06A00EB800158F821000128CAD99A
:103BD0000127C8E74FF0FF30F1E7281DFFF75AFD36
:103BE000A86A18B105F11800FFF754FDE86A012131
:103BF000A26981401143A16100EB800108EB8100C3
:103C0000291DFFF78BFDE86A2168C96A8842CDD378
:103C10000127CBE764000020780400202DE9F0475D
:103C20002C4D00242746A86B38B1FFF783FDA86B05
:103C3000401EA863A86B40B146E0202080F31188A5
:103C4000BFF34F8FBFF36F8FFEE72969224E01202C
:103C5000D1B3A6F1B40980463068E8B1F068C46811
:103C600004F11800FFF716FD201DFFF713FDE06AB1
:103C7000AA6908FA00F11143A96100EB800109EB80
:103C80008100211DFFF74AFDE06A2968C96A884260
:103C9000E2D3C5F82480DFE70CB1FFF775FB2C6A8F
:103CA00044B14646FFF756FF00B16E62641EF9D17B
:103CB00000202862686A38B108490127380708607F
:103CC000BFF34F8FBFF36F8FFFF754FD3846BDE84A
:103CD000F0870000640000202C05002004ED00E0C7
:103CE00058430008592000080000000000000000B0
:103CF0008000000000000000000000004C430008AD
:103D0000E11F0008FDFF000000000000800000002F
:103D100000000000000000003C430008F5200008FF
:103D2000FDFF000000000000800000000000000017
:103D30000000000000000000000000000102030479
:103D4000060708090000000001020304000000004B
:103D5000000000000000000000000000000000F86B
:103D600000000000000000333000000000100C06CE
:103D7000100C0600000000000000000040C0784069
:103D8000C0784000043F04043F040400007088FC35
:103D900008300000001820FF211E0000F008F0008D
:103DA000E018000000211C031E211E0000F00888FE
:103DB000700000001E2123241927211010160E0068
:103DC000000000000000000000000000000000E013
:103DD0001804020000000007182040000002041828
:103DE000E00000000040201807000000404080F084
:103DF000804040000202010F01020200000000F0BA
:103E0000000000000101011F01010100000000008D
:103E10000000000080B07000000000000000000002
:103E2000000000000001010101010101000000008B
:103E30000000000000303000000000000000000022
:103E400080601804006018060100000000E01008FF
:103E50000810E000000F102020100F00001010F8D4
:103E6000000000000020203F202000000070080813
:103E70000888700000302824222130000030088893
:103E8000884830000018202020110E000000C020BB
:103E900010F8000000070424243F240000F80888DC
:103EA000880808000019212020110E0000E0108869
:103EB00088180000000F112020110E00003808089B
:103EC000C83808000000003F0000000000708808AB
:103ED00008887000001C222121221C0000E010082C
:103EE0000810E0000000312222110F00000000C085
:103EF000C000000000000030300000000000008022
:103F00000000000000008060000000000000804011
:103F1000201008000001020408102000404040402A
:103F2000404040000404040404040400000810207D
:103F300040800000002010080402010000704808C2
:103F40000808F0000000003036010000C030C8282A
:103F5000E810E0000718272423140B000000C038E5
:103F6000E0000000203C23020227382008F888885F
:103F700088700000203F202020110E00C03008086B
:103F800008083800071820202010080008F8080842
:103F90000810E000203F202020100F0008F888883B
:103FA000E8081000203F20202320180008F8888807
:103FB000E8081000203F200003000000C03008087F
:103FC0000838000007182020221E020008F8080008
:103FD0000008F808203F210101213F20000808F8CF
:103FE000080800000020203F2020000000000808F2
:103FF000F8080800C08080807F00000008F888C0B2
:1040000028180800203F20012638200008F8080062
:1040100000000000203F20202020300008F8F80099
:10402000F8F80800203F003F003F200008F830C0AB
:104030000008F808203F200007183F00E01008089B
:104040000810E0000F10202020100F0008F80808CA
:104050000808F000203F210101010000E0100808DD
:104060000810E0000F18242438504F0008F8888802
:1040700088887000203F2000030C302000708808E2
:10408000080838000038202121221C00180808F8F0
:10409000080818000000203F2000000008F8080071
:1040A0000008F808001F202020201F000878880042
:1040B00000C83808000007380E010000F80800F8B2
:1040C0000008F800033C0700073C0300081868805C
:1040D0008068180820302C03032C30200838C800D2
:1040E000C83808000000203F200000001008080821
:1040F000C83808002038262120201800000000FEC3
:10410000020202000000007F40404000000C30C06E
:1041100000000000000000010638C000000202029A
:10412000FE000000004040407F000000000004024C
:104130000202040000000000000000000000000077
:104140000000000080808080808080800002020467
:10415000000000000000000000000000000080805F
:10416000808000000019242222223F2008F80080CD
:1041700080000000003F112020110E000000008090
:1041800080800000000E112020201100000000801F
:104190008088F800000E112020103F200000808051
:1041A00080800000001F222222221300008080F065
:1041B000888888180020203F202000000000808090
:1041C00080808000006B94949493600008F80080D5
:1041D00080800000203F210000203F200080989830
:1041E000000000000020203F202000000000008090
:1041F0009898000000C08080807F000008F80000D0
:1042000080808000203F24022D302000000808F824
:10421000000000000020203F2020000080808080DF
:1042200080808000203F20003F20003F8080008071
:1042300080800000203F210000203F20000080807F
:1042400080800000001F202020201F008080008030
:104250008000000080FFA12020110E0000000080DF
:1042600080808000000E112020A0FF8080808000D0
:104270008080800020203F212000010000008080FD
:10428000808080000033242424241900008080E0F2
:10429000808000000000001F2020000080800000BF
:1042A00000808000001F202020103F2080808000A0
:1042B0000080808000010E300806010080800080B0
:1042C000008080800F300C030C300F0000808000D5
:1042D000808080000020312E0E3120008080800000
:1042E0000080808080818E701806010000808080B0
:1042F000808080000021302C22213000000000004E
:10430000807C020200000000003F404000000000EE
:10431000FF00000000000000FF0000000002027C1F
:10432000800000000040403F000000000006010146
:1043300002020404000000000000000064697374BD
:10434000616E63655461736B0000000062757A7A78
:1043500065725461736B000064656661756C7454BA
:1043600061736B008443000800000020CC00000053
:10437000AC24000850440008CC0000209CA00000A1
:10438000BC240008000000006E000000DC000000FB
:10439000F4010000EE0200000000C03F00004040B9
:1043A0000000A0400000C040000000000000C84223
:1043B00000000000000000000000000000000000FD
:1043C00000000000000000000000000000000000ED
:1043D00000000000010000001000000000000000CC
:1043E0000024F400000000000000000000000000B5
:1043F00000000000000000000000000000000000BD
:1044000000000000000000000000000000000000AC
:10441000000000000000000000000000000000009C
:10442000000000000000000000000000000000008C
:10443000000000000000000000000000000000007C
:10444000AAAAAAAA000000000000000000000000C4
:040000050800018965
:00000001FF
